:020000040800F2
:10000000904300200D0200081502000817020008A6
:10001000190200081B0200081D0200080000000071
:100020000000000000000000000000001F020008A7
:100030002102000800000000230200082502000839
:1000400027020008270200082702000827020008EC
:1000500027020008270200082702000827020008DC
:1000600027020008270200082702000827020008CC
:1000700027020008270200082702000827020008BC
:1000800027020008270200082702000827020008AC
:10009000A10800082702000827020008270200081C
:1000A00027020008F10700082702000827020008BD
:1000B0000508000827020008270200082702000898
:1000C000270200082702000827020008270200086C
:1000D000270200089D0800082702000827020008E0
:1000E000270200082702000827020008270200084C
:1000F000270200082702000827020008270200083C
:10010000270200082702000827020008270200082B
:10011000270200082702000827020008270200081B
:10012000270200082702000827020008270200080B
:1001300000F002F800F05AF80AA090E8000C82449F
:100140008344AAF10107DA4501D100F04FF8AFF27C
:10015000090EBAE80F0013F0010F18BFFB1A43F0A5
:10016000010318471C2800003C2800000A444FF0F7
:10017000000C10F8013B13F0070408BF10F8014B06
:100180001D1108BF10F8015B641E05D010F8016B4B
:10019000641E01F8016BF9D113F0080F1EBF10F8AF
:1001A000014BAD1C0C1B09D16D1E58BF01F801CBD2
:1001B000FAD505E014F8016B01F8016B6D1EF9D555
:1001C0009142D6D37047000000230024002500266A
:1001D000103A28BF78C1FBD8520728BF30C148BFAA
:1001E0000B6070471FB51FBD10B510BD00F063F860
:1001F0001146FFF7F7FF00F051FD00F081F803B45E
:10020000FFF7F2FF03BC00F089F8000009488047BF
:1002100009480047FEE7FEE7FEE7FEE7FEE7FEE7E8
:10022000FEE7FEE7FEE7FEE704480549054A064B00
:100230007047000095060008310100089003002077
:1002400090430020902300209023002010B5203AF6
:10025000C0F00B80B1E81850203AA0E81850B1E87F
:100260001850A0E81850BFF4F5AF5FEA027C24BF35
:10027000B1E81850A0E8185044BF18C918C0BDE82C
:1002800010405FEA827C24BF51F8043B40F8043BF5
:1002900008BF7047D20728BF31F8023B48BF11F8AA
:1002A000012B28BF20F8023B48BF00F8012B704704
:1002B000704770477047754600F02CF8AE46050051
:1002C0006946534620F00700854618B020B5FFF771
:1002D000ABFFBDE820404FF000064FF000074FF0A5
:1002E00000084FF0000B21F00701AC46ACE8C00954
:1002F000ACE8C009ACE8C009ACE8C0098D4670475D
:1003000010B50446AFF300802046BDE81040FFF76B
:1003100076BF0000004870473003002001491820D4
:10032000ABBEFEE7260002007047000010B5044691
:100330001548007800F01F001F2819D112480068E6
:10034000B0B1114801780068401C0F4A106001F0FC
:100350001F000E4941F82040114609680C4A1268F6
:1003600002EB8101A1F18000084900F085F80AE064
:10037000054801780068401C034A106001F01F0026
:10038000024941F8204010BDE0000020AC010020EF
:10039000D000002010B50E48806940F01C000C49C8
:1003A00088610846C06940F00100C861084680695C
:1003B00040F40060886140F2177000F0E3FE4FF0F7
:1003C000806000F0D3FE002000F00CFF10BD0000A4
:1003D000001002400021A0F84010A0F84210704721
:1003E00001460020092916D2DFE801F015050709AA
:1003F0000B0D0F11130001200FE002200DE0032070
:100400000BE0042009E0052007E0062005E00720B6
:1004100003E0082001E0002000BF00BF704700009B
:100420001049114A51601149516000E000BF0E4966
:10043000C96801F001010029F8D10B49096941F0AF
:100440000201094A116111464861096941F0400100
:10045000116100E000BF0449C96801F001010029F1
:10046000F8D170472301674500200240AB89EFCDEA
:10047000014608687047000002461C481C4B586043
:100480001C48586000E000BF1948C06800F0010037
:100490000028F8D11648006940F00100144B18619B
:1004A00000200DE000E000BF114BDB6803F001030A
:1004B000002BF8D151F8203042F82030431CD8B23C
:1004C0002028EFDB00E000BF0948C06800F0010011
:1004D0000028F8D10648006920F00100044B18619B
:1004E0001846006920F080001861704723016745B5
:1004F00000200240AB89EFCD10B500F06FFB4FF448
:10050000005301221421104800F072FB4FF40063E5
:10051000032218210D4800F06BFB4FF48053032297
:1005200018210A4800F064FB4FF48073032218215D
:10053000064800F05DFB4FF480530322102104486D
:1005400000F056FB10BD0000001001400008014003
:10055000000C014070B504460E4606EB8400FFF720
:1005600087FF0546012D00D96D1E284670BD014646
:10057000B1F84000B1F84220904206DDB1F84000E9
:10058000B1F84220801A80B270470020FCE710B515
:100590004FF4C06000F0B0FD00220121142000F0F3
:1005A00055FD032211461C2000F050FD0222114689
:1005B000192000F04BFD10BD00B5024632F8421F75
:1005C0001088401C22F84209535CB2F84000B2F88F
:1005D0004210884202D11046FFF7FCFE184600BDCB
:1005E00010B503460C461846FFF7C1FFFF2808D197
:1005F000002023F8400F1988481C23F840095C5458
:1006000006E033F8401F1888401C23F840095C546A
:1006100010BD000010B5044617480078032810D11B
:10062000164800682043154908600846006818B15C
:1006300008460068FFF77AFE00200F490870012085
:1006400010BD0D48007810B900200C4908600A4818
:100650000078401C2021A1EBC00104FA01F00749F9
:10066000096808430549086003480078401C0249AE
:1006700008700020E4E70000E8000020E40000200B
:100680000348006820F0010001490860704700003D
:10069000002C014010B51448006840F001001249D8
:1006A000086008464068114908400F4948600846FC
:1006B00000680F4908400C4908600846006820F4AB
:1006C00080200860084640680A490840064948609A
:1006D0000846006806490840034908604FF41F00B7
:1006E000886000F025FE10BD001002400C00FFE8FD
:1006F000FFFFF6FEFFFF00F710B537480068401E09
:1007000036490968884229D93348006830B33448EB
:10071000016832480068FFF71DFF000C314908608E
:100720002F4801682D480068FFF714FF80B22D495B
:10073000091F086029480068401C284908602A48A9
:10074000006880F4805028490860264830380068E6
:1007500040F001002349303908603CE01E48006841
:10076000401E1E490968884235D11B48006830B3D5
:100770001E48007820B31A48016818480068FFF73F
:10078000E9FE000C17490860154801681348006825
:10079000FFF7E0FE80B21349091F086012480068A5
:1007A00080F480501049086000200C4908600D4812
:1007B0003038006840F001000A49303908600AE02A
:1007C000002006490860FFF75BFF0748006880F4D7
:1007D00080500549086010BDE0000020DC000020CA
:1007E000D0000020302C01400C0C0140D80000202B
:1007F00010B50121024800F087FEFFF77DFF10BD14
:10080000002C014010B50121880700F07DFE03484F
:10081000C06880F400500149C86010BD001001405C
:1008200000B589B01C4800F087FD4FF48660ADF834
:1008300014000020ADF81600ADF81800092007904C
:1008400005A9154800F0ECFD0121134800F058FE01
:100850001148006840F008000F4908604FF08040E0
:1008600000F06AFD4FF6FF70ADF804000020ADF80F
:100870000600ADF808004FF4FA70039001A90007D4
:1008800000F0CEFD0121880700F03AFE4FF08040D5
:1008900000F0C0FD09B000BD002C014000BFFEE724
:1008A00010B501F057FD10BD014611B14FF0F03009
:1008B00070470020FCE70000014613480068FF284D
:1008C00020D012480078114A527840EA02200F4A9C
:1008D000927840EA02400D4AD27840EA02600C4A1F
:1008E00010600A4800791071084840795071074833
:1008F000807990710120074A1070074A1070FF201C
:10090000014A106000207047EC000020F400002035
:1009100008010020FD000020FC0000202DE9F0412E
:1009200007460D461446012D18D1012C16D104EBB3
:10093000840107F1100000EB81067168306988427C
:1009400006D100231A462146384601F0BBF902E0E1
:1009500001200D4908700020BDE8F08125B91CB9BF
:100960003846FFF7A9FF0DE065B9032C0AD1012035
:10097000064908700321384601F0ADFD04490860BE
:100980000020E9E70220E7E7FC000020FD0000204E
:100990000001002010B504460020044908704023DF
:1009A000034A0321204601F017F910BDFD00002085
:1009B000F002002070B505460C46402C08D80020F7
:1009C00004490870A3B2044A8121284601F07AF94B
:1009D00070BD0000FC000020F002002070B504464D
:1009E0000D468121204600F023FF0321204600F020
:1009F0001FFF8221204600F01BFF002070BD000079
:100A000070B504460D46094A0021204600F06AFFF1
:100A1000064AD21F0021204600F064FF034A173A1D
:100A20000021204600F05EFF002070BD4C01002038
:100A30002DE9F04105460C463A26444F207800F057
:100A4000600000284AD020287BD16078042815D087
:100A500007DC78B101280ED002280DD003283AD146
:100A60000BE020280BD0212813D0222831D02328B6
:100A700031D12FE030E02FE02EE02DE02CE0607847
:100A800033490860E388334A0021284601F0A4F87E
:100A900022E0314800782F4908702F480088000A6A
:100AA00048702D480068000C88702B480068000EC4
:100AB000C87029480079087127484079487126484C
:100AC00080798871E3880A468021284601F0FAF887
:100AD00002E001E000E000BF00BF33E060780628DC
:100AE00016D00A2802D00B2828D106E001231B4A81
:100AF0008021284601F0E6F821E0A07818B9A07816
:100B00001649086003E02146284600F0F9FD16E08A
:100B100060882121B1EB202F08D1E0883A2801DD3F
:100B20003A2000E0E0880646084F093733463A4647
:100B30008021284601F0C6F801E002E000BF00BFB6
:100B400000BF00BF00BF0020BDE8F08119010020F8
:100B5000EC000020F400002008010020F00000203C
:100B600070B504460D4616460B4920680860287883
:100B7000FFF79AFE084948603078FFF795FE06496E
:100B8000886006480068FFF74BFC0349034800688B
:100B9000FFF772FC70BD000070020020CC00002046
:100BA00070B504460D4616460B480068FFF760FC1A
:100BB000401C20B108480068FFF75AFC2060064935
:100BC0000968486800F0A4FC28700349096888682F
:100BD00000F09EFC307070BDCC00002010B54FF4CA
:100BE000407000F0EFFA4FF4407000F0DBFA10BDF7
:100BF000F0B5044616460025002201F00F0501F06D
:100C0000100707B1354300201EE0012787401F4031
:100C1000C7B122684FEA800C0F2707FA0CF7BA43D6
:100C2000870005FA07F73A43282904D101278740AE
:100C30001F40676105E0482903D1012787401F4015
:100C400027612260471CB8B20828DED3082022E0C2
:100C5000012787401F40E7B16268A0F108074FEA0B
:100C6000870C0F2707FA0CF7BA43A0F10807BF005B
:100C700005FA07F73A43282904D1012787401F4086
:100C8000676105E0482903D1012787401F4027619C
:100C90006260471CB8B21028DAD3F0BD90B000BF34
:100CA000FFF778FBFFF728FCFFF7BAFDA04800F03C
:100CB000CFFCFFF76CFC00BF9E4A9F499F48FFF79F
:100CC0006FFF002400BF9A484078032825D19C4834
:100CD000007801280AD19B480078012806D100201D
:100CE000984908709248FFF755FE16E0964800684C
:100CF00098B1002506E09548415D9548FFF770FCE6
:100D0000681CC5B2904800688542F4D30021884829
:100D1000FFF750FE00208C4908608D48FFF727FC44
:100D20000028D0D08A48FFF747FC0546092C18D286
:100D3000DFE804F00518212A38465360AA00284647
:100D4000FFF74EFB0446072C0BD100207B490860BF
:100D500080490860FF20804908700021284600F083
:100D60005DFAE2E00121284600F058FA7BA000F08D
:100D7000CDF90024D9E00021284600F04FFA7CA0EC
:100D800000F0C4F90024D0E00121284600F060FA08
:100D90007CA000F0BBF9674A67496848FFF7E0FEAE
:100DA0000024C2E00021284600F052FA7AA000F0A8
:100DB000ADF9604A60496148FFF7D2FE0024B4E013
:100DC00001205C49087079A000F0A0F9594A5A49FD
:100DD0005A48FFF7C5FE0024A7E0002055490870D7
:100DE00076A000F093F9534A53495448FFF7B8FEF0
:100DF00000249AE058480078FF2820D15648057012
:100E0000007830B97248006820F48050704908605A
:100E100005E06F48006840F480506D49086047491C
:100E2000097801F01F016B4A1268501AFFF7F8FAAF
:100E300000204249086068A000F068F923E02846D5
:100E4000FFF7E8FBF8B16B480068E0B93B48006881
:100E5000202805D268495F480068FFF70DFB09E0CC
:100E60003649096849095B4A126802EBC1106249B8
:100E7000FFF702FB2F4A30493048FFF771FE5FA0B1
:100E800000F044F9002450E035BB40225FA16846E1
:100E9000FFF7DCF92948006818B930208DF82400E4
:100EA00002E031208DF824002348007818B1312069
:100EB0008DF82E0002E030208DF82E001D480078BD
:100EC00018B131208DF83B0002E030208DF83B0056
:100ED000684600F01BF926E01748007818B1FF209B
:100EE0008DF8380002E000208DF8380011480078B5
:100EF00018B1FF208DF8390002E000208DF839008C
:100F00000E480088000A8DF83A000C4800788DF8E9
:100F10003B000D208DF83C000A208DF83D000EA806
:100F200000F0F4F800BF002400BF00BFCBE60000D3
:100F300000000020D9000020D8000020E0000020A0
:100F4000FD000020FC00002000010020F002002035
:100F50002C020020DC000020DA00002053746172B3
:100F6000742067656E65726174696F6E0A0D0000AA
:100F700053746F702067656E65726174696F6E0A75
:100F80000D00000052657065617420666C61672019
:100F90007365740A0D000000526570656174206607
:100FA0006C61672072657365740A0D005365742067
:100FB0006175746F73746172740A0D0052657365A4
:100FC00074206175746F73746172740A0D0000008F
:100FD0000C0C0140D000002050756C7365207374B8
:100FE0006174652069732073656C65637465640A58
:100FF0000D000000E4000020AC0100204C6F616493
:1010000020697320656E6465640A0D0047656E652E
:101010007261746F72207620312E3020323032327D
:101020002D30332D31392053616D706C65733A204A
:101030002A205265706561743A202A204175746FC8
:1010400073746172743A202A0A0D00002DE9F04190
:1010500003460D46164600240027A0462448006893
:1010600000F4E060B0F5A06F15D006DCB0F5407F6D
:1010700018D0B0F5806F19D110E0B0F5C06F06D070
:10108000B0F5E06F12D100274FF0040815E00127FA
:101090004FF0030811E00227B8460EE003274FF097
:1010A00001080AE004274FF0000806E04FF4A060B2
:1010B00000F022F80227B84600BF00BFC7F10400C5
:1010C00005FA00F4C8F104010F20C8403040044381
:1010D00024010848C45403F01F010120884059111D
:1010E000890001F1E021C1F80001BDE8F0810000B4
:1010F0000CED00E000E400E002490143024A116007
:10110000704700000000FA050CED00E02DE9F04109
:101110000646002400270025A04613E02F4620465F
:10112000611CCCB2355C0A2F04D10D2D02D14FF0D9
:10113000010805E00D2F03D10A2D01D14FF0010860
:1011400008480555B8F1000F01D1FF2CE6D106483B
:101150004078032803D121460348FFF72BFCBDE864
:10116000F0810000F002002000000020044A5168D5
:1011700021F0E06141EA0002014B5A607047000033
:1011800000100240064A02EB9011096800F01F03AC
:1011900001229A401143024B03EB901211607047F9
:1011A00000100240064A02EB9011096800F01F038C
:1011B00001229A409143024B03EB90121160704759
:1011C00000100240064A02EB9011096800F01F036C
:1011D00001229A401143024B03EB901211607047B9
:1011E00000100240044A516821F4400141EA000223
:1011F000014B5A607047000000100240064800682A
:1012000080B220F00400044908600846006880B2FB
:1012100020F0080008607047405C004010B50246AE
:1012200000207AB931B1094B1B6843F00103074C28
:10123000236005E0054B1B6823F00103034C23608A
:10124000012001E0002000BF00BF10BD002C0140C4
:10125000024600201AB9044B1970012001E0002059
:1012600000BF00BF70470000D80000200020002110
:101270002C4A126842F480322A4B1A6000BF401C8C
:10128000284A126802F4003119B94FF6FF729042F1
:10129000F5D1244A126802F400320AB900BFFEE711
:1012A000204A52681F4B5A601A4652685A601A46C2
:1012B000526842F480625A601A46526822F4403200
:1012C0005A601A46526842F440325A601A465268CE
:1012D000154B1A40134B5A601A465268134B1A4367
:1012E000104B5A601A46126842F080721A6000BFB2
:1012F0000C4A126802F00072002AF9D0094A5268BA
:1013000022F00302074B5A601A46526842F002026A
:101310005A6000BF034A526802F00802002AF9D05E
:101320007047000000100240FFFFC3F700000408F0
:1013300010B5FFF79BFF10BD10B504463349601A86
:101340008C4244D00CDCB4F1804F1CD03048204497
:1013500010B3B0F5806F28D0B0F5006F52D12DE0FA
:10136000B0F5806F3CD0B0F58E3F03D0B0F5923F22
:1013700048D13EE040F20B30FFF724FF40F20B3043
:10138000FFF710FF3FE04FF48060FFF71BFF4FF4C3
:101390008060FFF707FF36E040F20140FFF712FFE1
:1013A00040F20140FFF7FEFE2DE040F20240FFF761
:1013B00009FF40F20240FFF7F5FE24E040F203404F
:1013C000FFF700FF40F20340FFF7ECFE1BE040F2A6
:1013D0000440FFF7F7FE40F20440FFF7E3FE12E09F
:1013E00040F20540FFF7EEFE40F20540FFF7DAFE5F
:1013F00009E040F20D30FFF7E5FE40F20D30FFF757
:10140000D1FE00E000BF00BF10BD00000010004092
:1014100000FCFFBF016841F001010160704700005E
:101420000A888262294A904220D0B0F1804F1DD0B4
:10143000274A90421AD0274A904217D0264A904213
:1014400014D0264A904211D0254A90420ED0254A07
:1014500090420BD0244A904208D0244A904205D0B2
:10146000234A904202D0234A90420FD1026822F0D0
:101470007002026002688B7803F060031A43026016
:1014800002680B7903F010031A4302608A68C26293
:10149000194A90420CD0194A904209D0026822F4AD
:1014A0004072026002688B8903F440731A43026041
:1014B000064A904202D0094A904201D18A7B0263D7
:1014C000426942F00102426170470000002C014075
:1014D0000004004000080040000C004000340140BF
:1014E000004C0140005001400054014000180040F1
:1014F000001C00400020004000100040001400408C
:10150000C2680A43C260704702698A430261704739
:101510000146B1F1F03F01D1012070470020FCE706
:1015200070B504460D460026287800F01F0020B153
:10153000012830D0022878D143E06078022802D018
:10154000032825D100E000BF6888012818D10020B9
:10155000E07029462046D4F8C420904700BF002000
:1015600035490968888000BF3449096848F6BF7268
:1015700001EA020080F03001304A116000BF06E04D
:101580006888022803D12946204600F0B9F800E017
:1015900000BF00BF4EE06078022802D003280DD1C2
:1015A00004E02946204600F0ABF808E0287901283D
:1015B00003D92946204600F0A3F800E000BF00BF91
:1015C00038E02E796078022802D003282AD107E07B
:1015D0002EB1802E03D02946204600F091F822E05B
:1015E000688830B92EB1802E03D03146204600F0F5
:1015F0008FF829462046D4F8C420904700BF002029
:101600000D490968888000BF0C49096848F6BF7217
:1016100001EA020080F03001084A116000BF00BFFB
:1016200001E002E000BF00BF04E02946204600F0D0
:1016300067F800BF00BF70BD5C010020005C004087
:101640000346D3F8B40080781080D3F8B400704714
:101650000021C1700121094A116000211160121D91
:101660001160064A103211604FF41F41044A1160A4
:101670001146098889B2014A11607047405C0040F8
:101680005401002070B504460D466078032822D12D
:10169000287901281AD829462046D4F8C420904732
:1016A0000646E888B0B9AEB900BF00200E49096807
:1016B000888000BF0D49096848F6BF7201EA020040
:1016C00080F03001094A116000BF03E0294620463E
:1016D00000F016F804E02946204600F011F800BF9B
:1016E00000BF002070BD00005C010020005C0040D5
:1016F0000346D3F8B00000781080D3F8B0007047EC
:1017000070B504460D460021204600F08BFA70BDEE
:10171000F0B5024601F07F00CC117CB300EB8005F0
:1017200002F1100404EB850300BF2E4D05EB80048D
:10173000D4F8004C04F040046CB105EB8004D4F8FC
:10174000004C48F68F752C4044F04004254E06EBC3
:101750008005C5F8004C00BF00BF224E06EB800597
:10176000D5F8005C48F6BF7605EA060484F030053B
:101770001C4F07EB8006C6F8005C30E0FFE700EB8B
:10178000800502F1600404EB850300BF154D05EBF5
:101790008004D4F8004C04F480446CB105EB800460
:1017A000D4F8004C48F68F752C4044F480440D4E1C
:1017B00006EB8005C5F8004C00BF00BF094E06EBE4
:1017C0008005D5F8005C4BF68F7605EA060484F4B4
:1017D0004055044F07EB8006C6F8005C00BF0024AC
:1017E0001C70F0BD0050004070B5074D05EB410482
:1017F000002304E034F8046B0680801C5B1C551C3D
:10180000B3EB550FF6D370BD0060004030B5074D07
:1018100005EB4104002303E0058820C4801C5B1C09
:10182000551CB3EB550FF7D330BD000000600040EE
:1018300030B5034601F07F00CA113AB300BF284C0F
:1018400004EB8002D2F8002C02F040026AB104EBF3
:101850008002D2F8002C48F68F74224042F04002F9
:101860001F4D05EB8004C4F8002C00BF00BF1C4DC9
:1018700005EB8004D4F8004C48F6BF7504EA050275
:10188000174D05EB8004C4F8002C27E000BF144C72
:1018900004EB8002D2F8002C02F480426AB104EB1F
:1018A0008002D2F8002C48F68F74224042F4804225
:1018B0000B4D05EB8004C4F8002C00BF00BF084DA1
:1018C00005EB8004D4F8004C4BF68F7504EA050252
:1018D000034D05EB8004C4F8002C00BF30BD0000B0
:1018E000005000402DE9F04305460B4614462246C1
:1018F000967806F00F000021D67806F0030636B180
:10190000012E0CD0022E05D0032E0BD104E04FF493
:10191000007108E0002106E04FF4C06103E04FF4DD
:10192000806100E000BF00BF41EA0006B6B2DFF808
:101930009CC20CEB8007C7F8006C91889678F61172
:10194000002E77D000EB800C05F1100606EB8C071B
:1019500079609F4E3688DFF87CC2DCF800C00CEB63
:10196000001CACF800604E1C26F00101984E366851
:101970000E44DFF85CC2CCF80060012B44D1DFF8E4
:101980004CC20CEB8006D6F8006C46F4807648F624
:101990008F7C06EA0C06DFF8348208EB800CCCF86A
:1019A000006C8B4E3688DFF82CC2DCF800C00CEBE4
:1019B000001CACF80860864E36680E44DFF810C292
:1019C000CCF8006000BF08EB800CDCF800CC48F6D7
:1019D000BF780CEA080686F0300CDFF8F09109EBCE
:1019E0008008C8F800CC00BF00BFC84608EB800CD8
:1019F000DCF800CC4BF68F780CEA0806C84608EBFA
:101A0000800CCCF8006C13E000BFDFF8C08108EB5D
:101A1000800CDCF800CC48F6BF780CEA080686F0AB
:101A2000200CDFF8A89109EB8008C8F800CC00BFB3
:101A3000C9E0FFE700EB800C05F1600606EB8C07C0
:101A40007960012B55D1DFF884C10CEB8006D6F804
:101A5000006C46F4807648F68F7C06EA0C06DFF8C8
:101A60006C8108EB800CCCF8006CC4460CEB800653
:101A7000D6F8006C48F68F7C06EA0C0646F0400665
:101A800008EB800CCCF8006C514E3688DFF844C16E
:101A9000DCF800C00CEB001CACF800603E2912D949
:101AA00001F11F0626F01F010126C6EB4116B6B252
:101AB00046F40046DFF81CC1DCF800C00CEB001C4B
:101AC000ACF804600EE04E1C26F001014FF6FF76E4
:101AD00006EA4126DFF8FCC0DCF800C00CEB001C75
:101AE000ACF804603A4E36680E44DFF8E4C0CCF837
:101AF00000609188364E3688DFF8D8C0DCF800C028
:101B00000CEB001CACF808603E2912D901F11F064D
:101B100026F01F010126C6EB4116B6B246F4004678
:101B2000DFF8B0C0DCF800C00CEB001CACF80C60B7
:101B30000EE04E1C26F001014FF6FF7606EA412624
:101B4000DFF890C0DCF800C00CEB001CACF80C60B7
:101B5000012B23D100BFDFF8748008EB800CDCF888
:101B600000CC4BF68F780CEA0806DFF8608008EBB3
:101B7000800CCCF8006C00BF00BF08EB800CDCF8D8
:101B800000CC48F6BF780CEA080686F0200CDFF897
:101B90003C9009EB8008C8F800CC13E000BFDFF8E8
:101BA0002C8008EB800CDCF800CC4BF68F780CEA2C
:101BB000080686F4005CDFF8149009EB8008C8F88A
:101BC00000CC00BF00BFBDE8F08300000050004023
:101BD000580100205C0100202DE9F041044601F08D
:101BE0007F0000EB800704F1600606EB8705AA6022
:101BF000EB6000BFDFF828C00CEB8007D7F8007C53
:101C00004BF68F7C07EA0C0686F44057DFF810800D
:101C100008EB800CCCF8007C00BFBDE8F081000030
:101C200000500040F0B5024601F07F00CC11BCB17D
:101C300000EB800502F1100404EB850300BF204E89
:101C400006EB8005D5F8005C48F6BF7605EA060489
:101C500084F010051A4F07EB8006C6F8005C17E009
:101C600000EB800502F1600404EB850300BF144E15
:101C700006EB8005D5F8005C4BF68F7605EA060486
:101C800084F480550E4F07EB8006C6F8005C00BF59
:101C900001241C7098B900BF094E06EB8005D5F8E9
:101CA000005C4BF6BF7605EA060484F4805585F0A7
:101CB0001005034F07EB8006C6F8005C00BFF0BDBF
:101CC000005000402DE9F84306460F4690469946DD
:101CD0000020009007F07F0505EB850106F110005C
:101CE00000EB8104C4F80880C4F80C900020206147
:101CF0006168E068884202D96068009001E0E068AD
:101D00000090009B9AB2114B1B6803EB05131988D6
:101D1000A068FFF77BFD0D490098096801EB0511EC
:101D2000888000BF0A4A02EB8501D1F8001C48F602
:101D3000BF7201EA020080F03001054B03EB85021F
:101D4000C2F8001C00BFBDE8F88300005C01002061
:101D50000050004038B504460D4600200090E88849
:101D6000012804D029462046FFF7CAFC19E0607814
:101D7000022802D003280ED106E001236A46802102
:101D80002046FFF79FFF0BE00123224680212046DB
:101D9000FFF798FF04E029462046FFF7B1FC00BF9B
:101DA00000BF38BD2DE9F84305460C46207800F009
:101DB0001F0078BB4FF0000860880612A77800204B
:101DC0000090032E0BD8052F09D8701E194951F821
:101DD00020306A46394628469847804603E0214627
:101DE0002846FFF78DFCBDF8000090B1E08880B177
:101DF000E088BDF80010884202DDBDF8000000E078
:101E0000E0880090BDF80030424680212846FFF768
:101E100059FF0DE0FFE7207800F01F00012807D1EF
:101E2000D5F8C40020B121462846D5F8C4209047F3
:101E3000BDE8F8839C01002070B504460D4660782B
:101E4000022802D0032816D104E029462046FFF7D5
:101E500057FC11E02879012808D8D4F8C40048B10B
:101E600029462046D4F8C420904703E0294620465E
:101E7000FFF746FC00E000BF00BF70BD7CB5044624
:101E80000E46002001900090307800F01F0020B135
:101E900001281AD0022867D134E06078022802D0E5
:101EA00003280FD100E000BFE07820B1BDF80400A6
:101EB00040F002000190022301AA80212046FFF792
:101EC00001FF00E000BF00BF53E06078022802D0AD
:101ED000032814D104E031462046FFF711FC0FE03F
:101EE0003079012806D8022301AA80212046FFF775
:101EF000E9FE03E031462046FFF702FC00E000BFA8
:101F000000BF36E035796078022802D0032828D156
:101F100007E02DB1802D03D031462046FFF7F0FBBE
:101F200020E005F0800080280BD105F07F0000EB59
:101F3000800104F1100010F8210058B10120009038
:101F400008E005EB850104F1600010F8210008B1FC
:101F50000120009002236A4680212046FFF7B2FE4E
:101F600000E000BF00BF04E031462046FFF7C8FB99
:101F700000BF00BF7CBD000070B505460E4606EBF5
:101F8000860105F1100000EB8104002E64D1E868A1
:101F9000002853D06168E068884211D96168E06820
:101FA000401AE060A08983B280212846A268FFF72A
:101FB00089FE00231A4619462846FFF70DFE62E007
:101FC0006168E068B0FBF1F201FB120090B9E068D3
:101FD000E96888420ED200231A4680212846FFF77E
:101FE00071FE0020E86000231A4619462846FFF7D4
:101FF000F3FD48E00020E0606878032805D1002266
:1020000001212846D5F8C830984700BF1F4800680E
:1020100040F4807048F68F7108401C49086000BF8A
:1020200009684BF68F7201EA020080F44051174AAA
:10203000116000BF00BF0020E86024E01448007871
:1020400008B31348007840F0800010494C31086014
:1020500000200F49087016E0D4E90301401AE0603F
:10206000E06848B9687803280DD132460121284636
:10207000D5F8C830984706E0A08983B23146284693
:10208000A268FFF71FFE002070BD0000005C00404A
:102090006401002001461448007818B31248007803
:1020A000401E114A107010460078D8B90F480078C9
:1020B00001280AD10E48006880B220F010000C4AB6
:1020C00010600020094A10700CE00948006880B2D6
:1020D00040F01000064A10600320034A10700120EF
:1020E000024A107000207047600100206201002049
:1020F000405C00402DE9FC4107460025002001908E
:102100000090002495E0BDF8040000F00F054E4952
:1021100001EB8500D0F8000C80B20090BDF80400FF
:1021200000F0100048BB05EB850107F1100000EB43
:102130008104BDF8000000F08000002879D04249F9
:1021400001EB8500D0F8000C48F60F7108403E4ABC
:1021500002EB8501C1F8000C3C48006800EB05105B
:102160008088C0F3090020612169A0680844A0604C
:1021700029463846FFF700FF5BE0002605EB8501A6
:1021800007F1600000EB8104BDF8000000F400409E
:1021900000284DD02C4901EB8500D0F8000CC0F38D
:1021A0000E0048F68F710840274A02EB8501C1F8FE
:1021B000000C2648006800EB05108089C0F3090672
:1021C000D6B1BDF8000000F4006060B11F4800689F
:1021D00001893246381DFFF707FB384600F03BFB0C
:1021E0000020BDE8FC81194A126802EB0512118932
:1021F0003246A068FFF7F8FA206930442061A068F1
:102200003044A060E068801BE060E06810B1606866
:10221000B04206D92946384600F008F9002020616E
:1022200006E0A08983B229463846A268FFF7D4FCAD
:1022300000BF0748006880B2019000F40040002809
:102240007FF461AF00BFCCE7005000405C0100208C
:10225000445C004010B502464020214B18601846EF
:102260000088204B1B6818801D48006840301C4BBC
:102270001860184600881B4B1B68188118480068B6
:102280004030174B186048F2FF70164B1B6898815E
:1022900040235361536600210FE0134B03EB810091
:1022A000D0F8000C48F68F73184008430E4C04EB2E
:1022B0008103C3F8000C481CC1B20429EDD380206F
:1022C0000A4B186009484C38006880B2074B4C3BF9
:1022D000186043F22020186001205070002010BDCB
:1022E000580100205C010020005000404C5C004080
:1022F00010B504460448006820B10348006801682E
:1023000020468847002010BD0401002010B5044677
:102310006078A070042060700548007810B100F06B
:10232000D9FA02E0032003490870002010BD000024
:10233000610100206001002010B50446A0786070A3
:102340000348007808B9FEF759FF002010BD0000CF
:10235000620100201CB50020019000903048006808
:1023600080B201902F48008800F40040BDF80410AE
:10237000084010B12C48FFF7BDFE2A48008800F441
:102380008050BDF80410084030B14EF6FF7024496B
:1023900008602548FFF7D0FF2248008800F400605D
:1023A000BDF80410084060B11D48001F006800F02F
:1023B000100030B91C48FFF7A9FF4FF2FF70184911
:1023C00008601848008800F40070BDF80410084048
:1023D00030B14FF6FF50124908601348FFF788FFED
:1023E0001048008800F48070BDF80410084030B137
:1023F0004FF6FF600A4908600B48FFF74BFE09489B
:10240000008800F48060BDF80410084030B14FF639
:10241000FF30034908600448FFF71CFF1CBD0000A3
:10242000445C0040540100200000002070B50446C8
:102430000E4606EB860104F1600000EB81057EBBD1
:10244000E06870B36968E86888420BD96968E86831
:10245000401AE860A88983B200212046AA68FFF7E5
:10246000BBFB30E06078032805D1002211462046EE
:10247000D4F8C830984700BF002014490968888004
:1024800000BF1349096848F6BF7201EA020080F0F4
:1024900030010F4A116000BF00BF0020E06012E071
:1024A00008E0FFE70A48006848F68F6108400849DD
:1024B000086008E06078032805D1324600212046F4
:1024C000D4F8C8309847002070BD00005C0100209F
:1024D000005C00407047024601EB810302F160009E
:1024E00000EB8300008A80B27047000070B504469C
:1024F0000D46A88848BBE88838BBA87800F07F0064
:10250000144908706078032804D129462046FFF753
:10251000F7F81EE000BF00200F490968888000BF5F
:102520000E49096848F6BF7201EA020080F03001E6
:102530000A4A116000BF00BF0648007810B10220AF
:10254000607006E00120607003E029462046FFF736
:10255000D7F870BD640100205C010020005C0040E1
:1025600070B504460D46A8784F49087008460078B3
:10257000012804D929462046FFF7C2F893E0607885
:10258000022802D0032878D132E047480078E0B131
:102590004548007820700320607043480178204649
:1025A000D4F8BC20904700BF0020404909688880CB
:1025B00000BF3F49096848F6BF7201EA020080F097
:1025C00030013B4A116000BF11E000BF00203749D5
:1025D0000968888000BF3649096848F6BF7201EA79
:1025E000020080F03001324A116000BF00BF59E0A4
:1025F0002D480078E0B9022060702B4800782070E8
:10260000294801782046D4F8C020904700BF002018
:1026100026490968888000BF2549096848F6BF72C5
:1026200001EA020080F03001214A116000BF37E06A
:1026300020781D490978884220D021782046D4F896
:10264000C02090471848007820701748017820462D
:10265000D4F8BC20904700BF002014490968888046
:1026600000BF1349096848F6BF7201EA020080F012
:1026700030010F4A116000BF12E012E000BF0020DD
:102680000A490968888000BF0949096848F6BF728D
:1026900001EA020080F03001054A116000BF00BF6E
:1026A00000E000BF00BF70BDA80100205C01002059
:1026B000005C00407047000070B505460C460026DF
:1026C000207800F01F0020B1012823D0022865D116
:1026D00036E06878022802D0032818D100E000BF55
:1026E0006088012812D1E87000BF00202F490968D6
:1026F000888000BF2E49096848F6BF7201EA0200CF
:1027000080F030012A4A116000BF00BF00E000BF26
:1027100000BF48E06878022802D003280DD104E009
:1027200021462846FEF7ECFF08E02079012803D96E
:1027300021462846FEF7E4FF00E000BF00BF32E07C
:1027400026796878022802D0032824D107E02EB128
:10275000802E03D021462846FEF7D2FF1CE0608879
:1027600030B92EB1802E03D031462846FFF75AFAF1
:1027700000BF00200D490968888000BF0C49096826
:1027800048F6BF7201EA020080F03001084A116089
:1027900000BF00BF00E000BF00BF04E021462846A4
:1027A000FEF7AEFF00BF00BF70BD00005C0100205F
:1027B000005C004070B504460D466078022802D0E7
:1027C000032827D104E029462046FEF799FF22E09E
:1027D0002879012819D8D4F8C40020B12946204608
:1027E000D4F8C420904700BF00200C4909688880B5
:1027F00000BF0B49096848F6BF7201EA020080F089
:102800003001074A116000BF03E029462046FEF769
:1028100077FF00E000BF00BF70BD00005C0100203A
:10282000005C004010B50246101D03780B70437821
:102830004B708478C37804EB03234B80047943798D
:1028400004EB03238B808479C37904EB0323CB80CF
:10285000CB88D36010BD1CB5044669462046FFF7FF
:10286000E1FF9DF8000000F0600020B1202807D0B3
:1028700040280FD109E06946204600F013F80EE029
:1028800069462046FEF7FEFE09E06946204600F054
:102890002CF804E000212046FFF7C4F900BF00BF78
:1028A00000201CBD70B505460C466078034951F800
:1028B0002020214628469047002070BD6801002056
:1028C00010B50346D3F8B84054F8210004781480BA
:1028D00010BD00000348006880B240F00C000149C0
:1028E00008607047405C0040704702460020704717
:1028F00018034600650072006E0061006E006400FF
:1029000065007A004B004100000020035000750074
:102910006C00730065002000670065006E006500B4
:102920007200610074006F00720000002C03500000
:1029300075006C00730065002000670065006E0084
:1029400065007200610074006F0065002000760071
:10295000200031002E0030000000120100020200B1
:102960000040E9288A01000101020301040309046F
:102970006C290008F02800080A2900082C29000802
:10298000A029000800000020AC0100006C01000834
:10299000502A0008AC010020E4410000C8010008F2
:1029A00001B0135A29140810011B20700813010AE2
:1029B0001408DD091B0831081A1D08111A7C041AB5
:1029C0008004111A01040211FF091012B133C2016F
:1029D0001208140902431302011D80320904471A28
:1029E000020B13052416100105240110090104240B
:1029F000020205240617010705820308150A0904C7
:102A00000133020A2E0705030240072A81075139C4
:102A1000081A6007295731137D1E14082115140860
:102A2000D5244C08B926081AED0413A51D1B08B5BA
:102A3000101A55081361251B08392813B5271408E7
:102A4000E9281408F1161B0841041AC10C410000C2
:0400000508000131BD
:00000001FF
