:020000040800F2
:10000000D0410020CD010008D5010008D70100082B
:10001000D9010008DB010008DD0100080000000034
:10002000000000000000000000000000DF010008E8
:10003000E101000800000000E3010008E5010008FC
:10004000E7010008E7010008E7010008E7010008F0
:10005000E7010008E7010008E7010008E7010008E0
:10006000E7010008E7010008E7010008E7010008D0
:10007000E7010008E7010008E7010008E7010008C0
:10008000E7010008E7010008E7010008E7010008B0
:10009000E7010008E7010008E7010008E7010008A0
:1000A000E701000855080008E7010008E70100081B
:1000B0006D080008E7010008E7010008E7010008F3
:1000C000E7010008E7010008E7010008E701000870
:1000D000E701000801090008E7010008E70100083E
:1000E000E7010008E7010008E7010008E701000850
:1000F000E7010008E7010008E7010008E701000840
:10010000E7010008E7010008E7010008E70100082F
:10011000E7010008E7010008E7010008E70100081F
:10012000E7010008E7010008E7010008E70100080F
:1001300000F002F800F03AF80AA090E8000C8244BF
:100140008344AAF10107DA4501D100F02FF8AFF29C
:10015000090EBAE80F0013F0010F18BFFB1A43F0A5
:10016000010318470016000020160000103A24BFB3
:1001700078C878C1FAD8520724BF30C830C144BF0C
:1001800004680C607047000000230024002500264E
:10019000103A28BF78C1FBD8520728BF30C148BFEA
:1001A0000B6070471FB51FBD10B510BD00F031F8D2
:1001B0001146FFF7F7FF00F0C5FE00F04FF803B45B
:1001C000FFF7F2FF03BC00F057F800000948804732
:1001D00009480047FEE7FEE7FEE7FEE7FEE7FEE729
:1001E000FEE7FEE7FEE7FEE704480549054A064B41
:1001F000704700005106000831010008D0010020BE
:10020000D0410020D0210020D0210020704770472D
:100210007047754600F02CF8AE4605006946534617
:1002200020F00700854618B020B5FFF7DDFFBDE8D8
:1002300020404FF000064FF000074FF000084FF04D
:10024000000BAC46ACE8C009ACE8C009ACE8C0099A
:10025000ACE8C00921F007018D46704710B504468F
:10026000AFF300802046BDE81040FFF7A8BF0000B4
:10027000004870471000002001491820ABBEFEE77F
:10028000260002007047000040F27003C2F2000333
:100290009A68844602F01F01501C1F2998600FD1F4
:1002A00040F20001C2F200010A6840F24C1102EB78
:1002B0008000C2F200018038C1F87CC000F070B844
:1002C00040F24C10C2F2000040F821C0704700001C
:1002D00041F21800C4F20200016841F4804101605B
:1002E000016841F004010160016841F0080101600A
:1002F000016841F010010160416841F00101416075
:10030000016841F40061016070470000411E072947
:1003100028BF00207047000042F20C0140F2231277
:10032000C4F20201C4F2675241F8082C48F6AB123D
:10033000CCF6EF5241F8082C0A68D2071FBF00BF65
:100340000A685FEAC27200BF1FBF0A685FEAC27232
:1003500000BF0A6818BF5FEAC27201D000BFEBE7B6
:100360004A6842F002024A608860486840F04000F3
:10037000486009E000BF0868C0071EBF00BF0868EA
:100380005FEAC07008D000BF0868C0071EBF00BF8A
:1003900008685FEAC070EDD17047000000687047E0
:1003A00080B542F20C0240F22313C4F20202C4F2FE
:1003B000675342F8083C48F6AB13CCF6EF5342F8CB
:1003C000083C00BF1368DB071FBF00BF13685FEA6C
:1003D000C37300BF1FBF13685FEAC37300BF136816
:1003E00018BF5FEAC37301D000BFEBE753684FF05B
:1003F000000C43F00103536001E000BF00BF13682D
:10040000DB071FBF00BF13685FEAC37300BF1FBFD6
:1004100013685FEAC37300BF136818BF5FEAC37352
:10042000ECD151F82C3040F82C3000E000BF1368BC
:10043000DB071EBF00BF13685FEAC37308D000BFAD
:100440001368DB071EBF00BF13685FEAC373EDD1FB
:100450004CF0010E51F82E3040F82E301368DB07B7
:100460001EBF00BF13685FEAC3730BD000BF1368E1
:10047000DB071EBF00BF13685FEAC37302D000BF73
:10048000ECE700BF4CF0020E51F82E3040F82E3051
:100490001368DB071EBF00BF13685FEAC3730BD08E
:1004A00000BF1368DB071EBF00BF13685FEAC3739A
:1004B00002D000BFECE700BF4CF0030351F823E08B
:1004C0000CF1040CBCF1200F40F823E097D109E0B7
:1004D00000BF1068C0071EBF00BF10685FEAC07091
:1004E00008D000BF1068C0071EBF00BF10685FEAD9
:1004F000C070EDD1506820F001005060506820F0CD
:100500008000506080BD000010B500F081FA40F618
:100510000004C4F201042046182103224FF40073A2
:1005200000F082FA2046282103224FF4806300F075
:100530007BFA04F50060142101224FF4005300F00F
:1005400073FA04F58060102103224FF48053BDE854
:10055000104000F069BA000080B501EB8000FFF7A1
:100560001DFF411E88BF084680BD0000B0F8401046
:10057000B0F84200814298BF0146081A80B2704725
:1005800080B525200221012200F016FE1C20032147
:10059000032200F011FE192002210222BDE8804052
:1005A00000F00ABEB0F842104A1CA0F8422093B2F4
:1005B000B0F84020415C9A4204BF00220264084621
:1005C00070470000B0F84220B0F840C01346944590
:1005D00088BF63469A1A92B2FF2A19BF0CF1010232
:1005E000A0F840200122A0F8402008BF4FF0000CE6
:1005F00000F80C107047000010B540F27C04C2F205
:100600000004217861B103290CD16168084360605E
:1006100018BFFFF739FE01200021217010BD00BF77
:10062000002200E062681823A3EBC1039840104346
:10063000606001310020217010BD000042F60040D2
:10064000C4F20100016821F001010160704700005F
:1006500041F20400C4F2020050F8041C0C2241F0E4
:10066000010140F8041C0168CEF6FF021140016050
:1006700050F8041C4FF6FF72CFF6F662114040F8B6
:10068000041C50F8041C21F4802140F8041C036869
:100690004FF6FF71CFF200710B40036050F8043C3D
:1006A0001A4040F8042C4FF41F02426050F8042C0A
:1006B00042F4803240F8042C4FF6FC7250F8043CAF
:1006C0009B035CBF50F8043C5FEA83330AD450F8C4
:1006D000043C3AB113F4003304D150F8043C043A1A
:1006E0009B03EBD550F8042C920301D4FEE700BF26
:1006F000026801F54301026002680260026842F488
:1007000080620260026822F440320260026842F4B1
:1007100040320260026811400160016841F00061EE
:1007200041F42011016050F8041C41F0807140F840
:10073000041C00BF50F8041C89015FBF50F8041C62
:100740005FEA811150F8041C5FEA811103D450F86C
:10075000041C8901EED5016821F0030101600168E4
:1007600041F00201016003E00168090748BF7047DA
:100770000168090706D4016809075CBF01685FEAE0
:100780000171F1D570470000F0B581B040F27004FE
:10079000C2F20004D4E90102511E914238BF8842DE
:1007A0002AD3002A54D0814252D1217840F60C45F8
:1007B0000029C4F2010543D040F20006C2F200064F
:1007C0003168FFF7C9FE42F60047000CC4F201078A
:1007D000386360683168FFF7BFFE80B2F86228684E
:1007E00080F48050286000206060386840F001008C
:1007F000386001B0F0BD00BF40F20005C2F2000554
:100800002968FFF7A9FE42F60046000CC4F2010673
:10081000306360682968FFF79FFE80B2F06260680D
:100820000130606040F60C40C4F20100016881F4C0
:1008300080510160306840F00100306001B0F0BDCF
:1008400000206060FFF7FAFE286880F4805028607E
:1008500001B0F0BD80B542F60040C4F201000121B4
:1008600000F0BCFEBDE88040FFF78EBF80B54FF0C2
:100870008040012100F0B2FE41F20C00C4F2010000
:10088000016881F40051016080BD0000B0B588B0FE
:1008900042F60044C4F20104204600F09BFD4FF4F0
:1008A0008660049009200025069004A92046ADF832
:1008B000145000F0FDFD2046012100F08BFE206861
:1008C00040F0080020604FF0804000F083FD4FF6BC
:1008D000FF7000904FF4FA70029069464FF080402C
:1008E000ADF8045000F0E4FD4FF08040012100F02D
:1008F00071FE4FF0804000F0D5FD08B0B0BD0000A3
:1009000080B582B043F60000C4F201000168019195
:100910000199490604D40021016002B080BD00BFE6
:1009200000F098FE00F026F802B080BD10B543F646
:100930000004C4F20104204600F094FE20464FF467
:10094000E13100F051FE2046002100F0DFFE20469C
:10095000082100F0E9FE2046042100F0DFFE2046D9
:1009600040F2053100F0C6FE2046BDE8104000F020
:10097000BBBE0000C1B240F28400C2F20000FFF72B
:1009800021BE0000B0B5006840F2CC04C2F2000401
:100990002060087840F20405002818BF4FF0F030BE
:1009A00060601078C2F20005002818BF4FF0F030E8
:1009B000A0602868FFF7B0FC28682146BDE8B04079
:1009C000FFF7EEBCF0B581B040F20407C2F20007B9
:1009D0000D463968064608461446FFF7DFFC01302D
:1009E00003D03868FFF7DAFC306038684068A0F15F
:1009F000F030B0FA80F04009287038688068A0F1C3
:100A0000F030B0FA80F04009207001B0F0BD000075
:100A100080B54FF4407000F0AFFC4FF44070BDE87B
:100A2000804000F099BC000080B501F00F0C5FEA37
:100A3000C16E48BF4CEA020C282941D0482961D137
:100A400013F001017AD113F0020140F0828013F01B
:100A5000040140F0898013F0080140F0908013F009
:100A6000100140F0978013F0200140F09E8013F0B9
:100A7000400140F0A58013F0800140F0AC8013F4F9
:100A8000807140F0B38013F4007140F0BA8013F429
:100A9000806140F0C18013F4006140F0C88013F41D
:100AA000805140F0CF8013F4005140F0D68013F411
:100AB000804140F0DD8013F4004140F0E48080BDCF
:100AC00013F0010140F0E88013F0020140F0EF80E4
:100AD00013F0040140F0F68013F0080140F0FD80AF
:100AE00013F0100140F0048113F0200140F00B815D
:100AF00013F0400140F0128113F0800140F01881A2
:100B000065E100BFDA0740F01B819A0700F12181FF
:100B10005A0700F127811A0700F12D81DA0600F14A
:100B200033819A0600F139815A0600F13F811A0695
:100B300000F14581282900F04A81B3E10268016192
:100B400022F00F0242EA0C02026013F002013FF4AD
:100B50007EAF0268016122F0F00242EA0C120260EC
:100B600013F004013FF477AF0268016122F4706270
:100B700042EA0C22026013F008013FF470AF0268F1
:100B8000016122F4704242EA0C32026013F010015B
:100B90003FF469AF0268016122F4702242EA0C421C
:100BA000026013F020013FF462AF0268016122F499
:100BB000700242EA0C52026013F040013FF45BAF56
:100BC0000268016122F0706242EA0C62026013F076
:100BD00080013FF454AF0268016122F0704242EAA2
:100BE0000C72026013F480713FF44DAF42680161F2
:100BF00022F00F0242EA0C02426013F400713FF44B
:100C000046AF4268016122F0F00242EA0C124260F3
:100C100013F480613FF43FAF4268016122F47062D7
:100C200042EA0C22426013F400613FF438AF42689C
:100C3000016122F4704242EA0C32426013F48051A6
:100C40003FF431AF4268016122F4702242EA0C4263
:100C5000426013F400513FF42AAF4268016122F46C
:100C6000700242EA0C52426013F480413FF423AF19
:100C70004268016122F0706242EA0C62426013F441
:100C800000413FF41CAF4268016122F0704242EA29
:100C90000C72426080BD00BF0268416122F00F0209
:100CA00042EA0C02026013F002013FF411AF026845
:100CB000416122F0F00242EA0C12026013F00401DA
:100CC0003FF40AAF0268416122F4706242EA0C22EA
:100CD000026013F008013FF403AF0268416122F49F
:100CE000704242EA0C32026013F010013FF4FCAE95
:100CF0000268416122F4702242EA0C42026013F061
:100D000020013FF4F5AE0268416122F4700242EA2C
:100D10000C52026013F040013FF4EEAE02684161F4
:100D200022F0706242EA0C62026013F080014ED041
:100D30000268416122F0704242EA0C72026046E0B1
:100D4000026822F00F0242EA0C0202609A077FF565
:100D5000DFAE026822F0F00242EA0C1202605A078B
:100D60007FF5D9AE026822F4706242EA0C2202607A
:100D70001A077FF5D3AE026822F4704242EA0C32C1
:100D80000260DA067FF5CDAE026822F4702242EAF4
:100D90000C4202609A067FF5C7AE026822F4700228
:100DA00042EA0C5202605A067FF5C1AE026822F098
:100DB000706242EA0C6202601A067FF5BBAE0268FE
:100DC00022F0704242EA0C72026028296AD113F4C0
:100DD000807117D113F400711ED113F4806125D1F5
:100DE00013F400612CD113F4805133D113F400516A
:100DF0003AD113F4804141D113F400413FF45FAE86
:100E000047E000BF4268416122F00F0242EA0C0253
:100E1000426013F40071E0D04268416122F0F002B8
:100E200042EA0C12426013F48061D9D042684161F9
:100E300022F4706242EA0C22426013F40061D2D0C4
:100E40004268416122F4704242EA0C32426013F47B
:100E50008051CBD04268416122F4702242EA0C42B8
:100E6000426013F40051C4D04268416122F4700220
:100E700042EA0C52426013F48041BDD042684161A5
:100E800022F0706242EA0C62426013F400413FF4C7
:100E900016AE4268416122F0704242EA0C72426032
:100EA00080BD00BFD9051BD4990521D4590527D48D
:100EB00019052DD4D90433D4990439D4590405D54E
:100EC000416821F0706141EA0C614160190458BF2A
:100ED00080BD416821F0704141EA0C71416080BDE4
:100EE000416821F00F0141EA0C0141609905DDD50F
:100EF000416821F0F00141EA0C1141605905D7D554
:100F0000416821F4706141EA0C2141601905D1D595
:100F1000416821F4704141EA0C314160D904CBD5DC
:100F2000416821F4702141EA0C4141609904C5D522
:100F3000416821F4700141EA0C5141605904C5D562
:100F4000BEE70000FFF7C4F9FFF7DEFAFFF79EFCEB
:100F5000FFF7ECFCFFF714FB40F2780440F2700559
:100F600040F2C806C2F20004C2F20005C2F2000656
:100F7000204629463246FFF725FD3178002000291A
:100F800018BF01214FF0000800F006FA64A000F03D
:100F900047F940F2840740F20809C2F20007C2F2A2
:100FA000000906E000F03CF9204629463246FFF7EA
:100FB000E9FC4FF0000A3846FFF7D8FA0028FAD0CB
:100FC0003846FFF7EFFA5FFA8AF10729F3D883462C
:100FD000DFE801F0087820842E04364401203070C8
:100FE00067A0DFE75846FFF791F982460728E2D16C
:100FF00040F27400C2F20000C0F80080FF2089F8BF
:10100000000058460021C4F8008000F0C5F94FF0F8
:10101000070AD0E7584600214FF0000A00F0BCF95B
:1010200041F23C70C0F6000000F0FAF8C3E700BFE0
:10103000584600214FF0000A00F0C0F954A004E027
:101040004FF0000A49A086F800A000F0E9F8204619
:1010500029463246FFF796FCADE700BF99F800003D
:10106000FF280DD05846FFF7C7FA00284FF0070AAF
:10107000A1D040F28000C2F200000068A0B39AE75D
:1010800040F60C4189F800B0C4F201010868BBF1D8
:10109000000F20F4805018BF00F58050086040F227
:1010A00000012068C2F20001096800F01F00081A60
:1010B000FFF732F926A0C4F8008000F0B1F84FF035
:1010C000070A78E75846012100F066F941F24E70B0
:1010D000C0F6000000F0A4F86BE700BF58460121FD
:1010E00000F06CF92FA05DE7216840F200006FF07E
:1010F0007C02C2F2000002EA8102202940F24C1177
:101100000068C2F2000128BF1044FFF749F92046E9
:1011100029463246FFF736FC09A000F081F848E77F
:1011200047656E657261746F72207620302E3120B3
:10113000323032322D30332D30340A0D00000000B1
:101140004C6F616420697320656E6465640A0D00EC
:1011500050756C73652073746174652069732073B6
:10116000656C65637465640A0D0000005265736503
:1011700074206175746F73746172740A0D000000DD
:10118000536574206175746F73746172740A0D0015
:1011900052657065617420666C6167207265736565
:1011A000740A0D005265617065617420666C616738
:1011B000207365740A0D00004EF60C5CCEF2000C34
:1011C000DCF8003003F4E063A3F54073B3F5A06FDF
:1011D00002D21B0A07E000BF40F20053C0F2FA53EC
:1011E000CCF80030022301FA03FCC3F104030F2101
:1011F000D94011404EF2001241EA0C01CEF2000239
:10120000090140EA020383F8001300F01F010123E3
:1012100003FA01F11C2303EAD0008150704700005B
:101220002DE9F04143F6000580460027C4F2010590
:10123000002021E080F00A0186F00D02114380F0C9
:101240000D0086F00A021043B1FA81F1B0FA80F085
:101250004909400941EA000428463146013700F0B7
:10126000FDF9B7F1FF006FEA040118BF0120014248
:10127000304608BFBDE8F08118F807602968090604
:101280005FBF00BF29685FEA016100BF5FBF2968D7
:101290005FEA016100BF296858BF5FEA0161C9D4F4
:1012A00000BFEBE710B541F20402C4F2020213687A
:1012B000014603F00C00082841F20020C0F27A0039
:1012C00019D1136840F6001CDB03C0F23D0C03D5B6
:1012D00013689B0358BF844610681368C0F3834E9D
:1012E000102000EAD350704401230F2838BF022396
:1012F000184400FB0CF01368D2F800C014680329EE
:1013000010D8C3F3031310A2D25C41F2347E20FA4A
:1013100002F3C0F6000EDFE801F01503070F00BF6F
:10132000184610BD002010BDCCF302201EF80000AE
:1013300023FA00F010BD00BFC4F3C2201EF8000065
:1013400023FA00F010BD00BF000000000000000004
:10135000010203040607080941F2000300F01F011F
:101360008009C4F202034FF0010CC2580CFA01F1DB
:1013700022EA0101C150704741F2000300F01F0151
:101380008009C4F202034FF0010CC2580CFA01F1BB
:101390001143C1507047000000281CBF0020704757
:1013A00042F60040C4F201000268002922F0010266
:1013B00018BF0132026001207047000000281CBFE6
:1013C0000020704740F27000C2F20000017001205E
:1013D0007047000010B540F6FF71C4F2000188426A
:1013E00012DC40F2FF71C4F20001884222DCB0F14D
:1013F000804F3FD040F20041C4F2000188424FD1FB
:1014000040F2014444E000BF42F6FF31C4F2010162
:1014100088421FDC41F20001C4F2000188422DD055
:1014200041F20041C4F20001884218BF10BD40F2F1
:1014300005442DE040F60001C4F20001884221D0AD
:1014400040F60041C4F20001884229D140F2034431
:101450001EE000BF42F60041C4F20101884215D0EF
:1014600043F20041C4F20101884219D140F20D3427
:101470000EE000BF4FF480640AE000BF40F2044475
:1014800006E000BF40F2024402E000BF40F20B342D
:101490002046FFF771FF2046BDE81040FFF75CBF14
:1014A00010BD0000016841F00101016070470000BB
:1014B00080B50A8843F2004C826241F6FF72C4F2A2
:1014C00000029042C4F2010C14DC40F6FF33C4F277
:1014D0000003984224DCB0F1804F45D040F2004335
:1014E000C4F2000398423FD040F60003C4F2000368
:1014F00038E000BF44F6FF33C4F20103984221DC18
:1015000042F20003C4F2000398422DD042F6004399
:10151000C4F20103984227D0604525D034E000BFD3
:1015200040F60043C4F2000398421DD041F6000388
:10153000C4F20003984217D041F60043C4F20003FE
:1015400010E000BF44F60043C4F2010398420BD000
:1015500045F20043C4F20103984205D045F200036E
:10156000C4F2010398420FD1036823F070030360B3
:101570004B88026803F060031A4302608A8803689C
:1015800002F010021A43026041F20002D1F808E0B2
:1015900020F48063C4F200029342C0F82CE009D02A
:1015A000026822F4407202608A89036802F4407281
:1015B0001A430260604505D042F60042C4F20102BF
:1015C000904201D1897B0163416941F00101416190
:1015D00080BD0000C2681143C1607047026922EA01
:1015E0000101016170470000B0B5044644F6FF30C8
:1015F000C4F200000D4684424FF0000014DD44F6B2
:101600000041C4F200018C421AD045F20001C4F23C
:1016100000018C4214D043F60001C4F201018C4257
:1016200011D103200DE000BF44F20041C4F20001DB
:101630008C4205D044F60001C4F200018C4202D174
:101640000220FFF72FFE00EB5500B0FBF5F080B253
:10165000A060B0BD40686FF35F2070476FF35F21FB
:101660004160704710B544F6FF31C4F20001884272
:1016700016DD44F60041C4F20001884220D045F254
:101680000001C4F2000188421ED043F60001C4F2FA
:101690000101884218BF10BD40F20E341AE000BFAD
:1016A00044F20041C4F20001884211D044F6000126
:1016B000C4F20001884215D140F212440AE000BF92
:1016C00040F2134406E000BF40F2144402E000BFC1
:1016D00040F211442046FFF74FFE2046BDE810407F
:1016E000FFF73ABE10BD0000C16841F40051C1606F
:1016F0007047000001F01F02C1F389114FF0010C87
:101700000B580CFA02F21A430A507047C26822F4CE
:10171000C062C260C2681143C1607047C26822F0F3
:1017200004021143C1607047C26822F008021143ED
:10173000C1607047000000000102030453746F7021
:101740002067656E65726174696F6E0A0D0053746F
:101750006172742067656E65726174696F6E0A0DDF
:1017600000000000881700080000002010000000A2
:101770006C0100089817000810000020C04100000C
:10178000880100080000000000800008007C0008BC
:08179000FF0000000000000052
:0400000508000131BD
:00000001FF
