:020000040800F2
:10000000904300200D0200081502000817020008A6
:10001000190200081B0200081D0200080000000071
:100020000000000000000000000000001F020008A7
:100030002102000800000000230200082502000839
:1000400027020008270200082702000827020008EC
:1000500027020008270200082702000827020008DC
:1000600027020008270200082702000827020008CC
:1000700027020008270200082702000827020008BC
:1000800027020008270200082702000827020008AC
:10009000730700082702000827020008270200084B
:1000A00027020008C50600082702000827020008EA
:1000B000DD060008270200082702000827020008C2
:1000C000270200082702000827020008270200086C
:1000D000270200087107000827020008270200080D
:1000E000270200082702000827020008270200084C
:1000F000270200082702000827020008270200083C
:10010000270200082702000827020008270200082B
:10011000270200082702000827020008270200081B
:10012000270200082702000827020008270200080B
:1001300000F002F800F05AF80AA090E8000C82449F
:100140008344AAF10107DA4501D100F04FF8AFF27C
:10015000090EBAE80F0013F0010F18BFFB1A43F0A5
:1001600001031847B41D0000D41D00000A444FF0DD
:10017000000C10F8013B13F0070408BF10F8014B06
:100180001D1108BF10F8015B641E05D010F8016B4B
:10019000641E01F8016BF9D113F0080F1EBF10F8AF
:1001A000014BAD1C0C1B09D16D1E58BF01F801CBD2
:1001B000FAD505E014F8016B01F8016B6D1EF9D555
:1001C0009142D6D37047000000230024002500266A
:1001D000103A28BF78C1FBD8520728BF30C148BFAA
:1001E0000B6070471FB51FBD10B510BD00F063F860
:1001F0001146FFF7F7FF00F039FC00F081F803B477
:10020000FFF7F2FF03BC00F089F8000009488047BF
:1002100009480047FEE7FEE7FEE7FEE7FEE7FEE7E8
:10022000FEE7FEE7FEE7FEE704480549054A064B00
:1002300070470000D5050008310100089003002038
:1002400090430020902300209023002010B5203AF6
:10025000C0F00B80B1E81850203AA0E81850B1E87F
:100260001850A0E81850BFF4F5AF5FEA027C24BF35
:10027000B1E81850A0E8185044BF18C918C0BDE82C
:1002800010405FEA827C24BF51F8043B40F8043BF5
:1002900008BF7047D20728BF31F8023B48BF11F8AA
:1002A000012B28BF20F8023B48BF00F8012B704704
:1002B000704770477047754600F02CF8AE46050051
:1002C0006946534620F00700854618B020B5FFF771
:1002D000ABFFBDE820404FF000064FF000074FF0A5
:1002E00000084FF0000B21F00701AC46ACE8C00954
:1002F000ACE8C009ACE8C009ACE8C0098D4670475D
:1003000010B50446AFF300802046BDE81040FFF76B
:1003100076BF0000004870472C03002001491820D8
:10032000ABBEFEE72600020070470000F0B40D4CA3
:100330000D4D2169CA43D60601F01F0301F10102E8
:100340000BD151B145F823002261A0682946F0BCC9
:1003500000EB8200803800F065B845F82300226188
:10036000F0BC7047CC000020280200200D4810B5DA
:10037000816941F01C018161C16941F00101C161E4
:10038000816941F40061816140F2177000F0A0FDC5
:100390004FF0806000F092FDBDE81040002000F0BA
:1003A000C1BD00000010024001460020092907D20B
:1003B000DFE801F0060507090B0D0F1113000120FE
:1003C00070470220704703207047042070470520C3
:1003D00070470620704707207047082070470000CC
:1003E0000D490C4A4A600D4A4A6000E000BFCA68E5
:1003F000D207FBD10A6942F002020A61486108692A
:1004000040F04000086100E000BFC868C007FBD1B1
:10041000704700002301674500200240AB89EFCD03
:1004200000687047164B10B5144A5A60154A5A6056
:1004300000E000BFDA68D207FBD11A6942F001027E
:100440001A61002200E000BFDC68E407FBD151F82C
:10045000224040F82240521CD2B2202AF4D300E0BD
:1004600000BFD868C007FBD1186920F001001861EF
:10047000186920F08000186110BD00002301674555
:1004800000200240AB89EFCD70B500F09BFA4FF42D
:10049000005301221421104800F09FFA0F4C4FF432
:1004A000006303221821204600F097FAA5142B467A
:1004B00003221821204600F090FAA31503221821E8
:1004C000204600F08AFA2B46BDE870400322102136
:1004D000034800F082BA000000100140000801400B
:1004E000000C014010B501EB8000FFF799FF0128D7
:1004F00000D9401E10BD30F8401F4088814202D90B
:10050000081A80B270470020704710B54FF4C060E1
:1005100000F0A2FC00220121142000F059FC03226B
:1005200011461C2000F054FC0222BDE81040114688
:10053000192000F04DBCB0F842104A1C92B2A0F84D
:100540004220B0F84030415C934203D1002220F8B1
:10055000402F42800846704700B50B460246FFF721
:10056000CAFFFF2806D0B2F84000411CA2F8401094
:10057000135400BD0120A2F84000137000BD00001C
:1005800070B50F4C014600252078032801D048B1F2
:1005900009E060680843606001D0FFF7C7FE25707E
:1005A000012070BD65604242182303EBC2029140F6
:1005B0006268401C114361602070002070BD000023
:1005C000E40000200248016821F001010160704749
:1005D000002C01400E48016841F0010101604168B2
:1005E0000C4A1140416002680B490A4002600268EF
:1005F00022F4802202604268084B1A40426002687E
:100600000A4002604FF41F01816000F0BFBC00008F
:10061000001002400C00FFE8FFFFF6FEFFFF00F7AE
:100620002DE9F047244C254E2146D4E90302DFF89A
:100630008C80531E224D303E8968A8F104099842EF
:1006400014D29AB1FFF74EFF010CC8F80010D4E99C
:100650000210FFF747FF81B2C9F80010E068401CA4
:10066000E060286880F48050286017E0834219D148
:10067000002A17D022780027B2B1FFF733FF010C10
:10068000C8F80010D4E90210FFF72CFF81B2C9F8B6
:100690000010286880F480502860E760306840F0DF
:1006A00001003060BDE8F087E760FFF78BFF286846
:1006B00080F480502860F5E7CC000020302C014009
:1006C0000C0C014010B50121034800F057FDBDE8B6
:1006D0001040FFF7A5BF0000002C014010B501211C
:1006E000880700F04BFD0348C16881F40051C160E8
:1006F00010BD00000010014030B51C4D89B02846E7
:1007000000F088FC40F2CF20ADF800000024092062
:100710000290ADF80240ADF804406946284600F06A
:10072000BBFC0121284600F025FD286840F00800A8
:1007300028604FF08045284600F06CFC4FF6FF70B3
:10074000ADF810004FF4FA700690ADF81240ADF815
:10075000144004A9284600F09FFC0121284600F01F
:1007600009FD284600F092FC09B030BD002C014084
:10077000FEE701F08DB900000E4A5068FF2816D040
:1007800002F118008378018863F31F41C37841EABE
:100790000363A0F108010B6003790B7143794B717E
:1007A00080798871012050701070FF205060002007
:1007B00070470000EC00002070B514460122124D75
:1007C000012901D1012C04D051EA04030ED081B1DA
:1007D00011E0436B816A8B4205D100231A46214602
:1007E00000F00CFF00E02A70002070BDFFF7C4FF8E
:1007F00001E0032C01D0022070BD6A70032101F0DA
:1008000004FAE860F0E70000EC000020034A002151
:1008100040235170024A032100F0A4BEEC000020E6
:10082000EC020020402907D8044B00221A708BB23A
:10083000034A812100F0E2BE70470000EC00002076
:10084000EC02002010B50446812100F0A5FD032133
:10085000204600F0A1FD8221204600F09DFD0020F1
:1008600010BD000010B50446084A002100F0C0FD8C
:10087000064A0021D21F204600F0BAFD034A00219B
:10088000173A204600F0B4FD002010BD48010020BA
:1008900070B52A4A0C783A2314F06004A2F12905B5
:1008A00025D0202C47D14A78042A44DD202A02D0C2
:1008B000212A40D107E06A60204ACB88113A002102
:1008C00000F050FE37E01D4C193C04F1080223688B
:1008D00013701D0A55701D0C95701B0ED370237973
:1008E000137163795371A3799371CB8820E04C78AD
:1008F000062C12D00A2C02D00B2C1CD103E00F4A7C
:100900000123213A14E04A8812F0FF0F02D000F0D0
:10091000DFFC10E0D0B2A8600DE04C882125B5EBDB
:10092000142F05D1CB883A2B00D93A23034A093238
:10093000802100F063FE002070BD00001501002042
:1009400010B50B4B0068186009784FF0F03001B11A
:1009500001465960117801B900209860054C606823
:10096000FFF73EFD6068BDE810400149FFF75ABD42
:10097000A8010020CC0000202DE9F041104C0746D2
:1009800015460E466068FFF74BFD401C03D06068BB
:10099000FFF746FD386060684FF0F03140688842EC
:1009A00001D1012000E0002030706068806888423A
:1009B00001D1012000E000202870BDE8F081000096
:1009C000CC00002010B54FF44074204600F09CFA93
:1009D0002046BDE8104000F089BA2DE9F04301F04F
:1009E0000F04CD0600D5144300224FF00F094FF03D
:1009F000010808FA02F51D4013D00768960009FAAD
:100A000006FC27EA0C0704FA06FC4CEA070C282926
:100A100002D0482902D002E0456100E00561C0F83B
:100A200000C0521C92B2082AE3D3082208FA02F549
:100A30001D4014D047689600203E09FA06FC27EABC
:100A40000C0704FA06FC4CEA070C282902D04829B6
:100A500002D002E0456100E00561C0F804C0521C0C
:100A600092B2102AE2D3BDE8F083000090B0FFF705
:100A70007DFCFFF709FDFFF73FFE8E4800F0E6FB27
:100A8000FFF743FD8C4A8D498D48FFF775FFDFF86E
:100A900028924FF0804B99F8000030B101210020DE
:100AA00000F058FA43F6FF7005E00021084600F018
:100AB00051FA4FF6FF70CBF828000024DFF804A2AB
:100AC000DFF8FC8126467B48407803281DD17E480C
:100AD0000078012805D0DAF80010B1B100257B4F6D
:100AE0000DE07448FFF792FE0FE0795D7848FFF75C
:100AF00033FD795D774800F045FB6D1CEDB2DAF807
:100B000000008542F1D3CAF800607148FFF7F3FC9A
:100B10000028D8D06E48FFF70EFD0546092CD2D22A
:100B2000DFE804F00517212B313E434787002846B4
:100B3000FFF73AFC04460728C5D16748C8F80060AB
:100B400066490660FF2008700021284600F002FA7E
:100B5000B9E743F6FF70CBF828000121284600F0E2
:100B6000F9F95FA061E04FF6FF70CBF82800002193
:100B7000284600F0EFF95FA057E00121284600F079
:100B8000FBF961A004E00021284600F0F5F963A01C
:100B900000F06CF9484A49494948FFF7D1FE46E060
:100BA000012189F8001062A0F2E789F8006064A0D2
:100BB000EEE74A480178FF2910D02846FFF7E0FC0D
:100BC000002880D0634800680028C1D1D8F8000010
:100BD00020281CD26148604900681EE0057060480A
:100BE00001688DB141F48051016098F800004546DC
:100BF00000F01F0159480068401AFFF7F1FB59A0A7
:100C00002E6000F033F95EE721F48051ECE74109F2
:100C10005248006800EBC1104F49FFF703FC264A19
:100C200026492748FFF78CFE55A000F01FF9002445
:100C300049E735B12148007810B3FF208DF8000056
:100C400020E0402252A16846FFF700FBD8F80000E0
:100C500038B131208DF824001848007818B13120BF
:100C600002E03020F6E730208DF82E0099F80000E1
:100C700008B1312000E030208DF83B006846D4E711
:100C80008DF8006099F8000018B1FF208DF8010080
:100C900001E08DF80160B8F80000010A8DF802103B
:100CA0008DF803000D208DF804000A208DF8050052
:100CB000E4E7000000000020E0000020CC0000205D
:100CC000DC000020F8000020ED000020EC020020F5
:100CD000A802002000380140D8000020E1000020D8
:100CE00053746172742067656E65726174696F6EAA
:100CF0000A0D000053746F702067656E6572617431
:100D0000696F6E0A0D00000052657065617420669F
:100D10006C6167207365740A0D0000005265706590
:100D2000617420666C61672072657365740A0D00DA
:100D3000536574206175746F73746172740A0D0069
:100D40005265736574206175746F73746172740A8F
:100D50000D000000E800002028020020D400002040
:100D60000C0C014050756C736520737461746520C0
:100D700069732073656C65637465640A0D00000017
:100D80004C6F616420697320656E6465640A0D00B0
:100D900047656E657261746F72207620312E302047
:100DA000323032322D30332D31392053616D706C39
:100DB00065733A202A205265706561743A202A20B2
:100DC0004175746F73746172743A202A0A0D0000C1
:100DD000F0B506461F4800240F460068234600F47D
:100DE000E0654FF4A06085420FD006DCB5F5407F8A
:100DF00016D0B5F5806F06D10FE0B5F5C06F09D0FC
:100E0000B5F5E06F04D000F027F80224234608E08F
:100E1000042306E00124032303E00324012300E06C
:100E20000424C4F104008740C3F104010F20C8402A
:100E30001040384306F1E021000181F8000406F07B
:100E40001F01012088407109890001F1E021C1F8EA
:100E50000001F0BD0CED00E00249084302490860C2
:100E6000704700000000FA050CED00E030B40021EE
:100E7000104D0A460B461446425C491CC9B20A2C66
:100E800002D00D2C03D005E00D2A02D002E00A2A80
:100E900000D101236C1804F8012C0BB9FF29EAD109
:100EA00005484078032803D130BC0348FFF7BABC9B
:100EB00030BC7047EC02002000000020034A51685B
:100EC00021F0E061014351607047000000100240D2
:100ED000054901EB90110A6800F01F0301209840BA
:100EE00002430A607047000000100240054901EB10
:100EF00090110A6800F01F030120984082430A60A5
:100F00007047000000100240054901EB90110A688B
:100F100000F01F030120984002430A607047000060
:100F200000100240034A516821F44001014351601E
:100F30007047000000100240054801684FF6FB7240
:100F4000114001600168121F1140016070470000EC
:100F5000405C004002004FF000000AD10548002923
:100F6000016802D041F0010101E021F001010160BE
:100F700001207047002C014002004FF0000002D118
:100F80000148017001207047CC0000201E4800215C
:100F9000026842F4803202604FF6FF730268491C17
:100FA00012F4003F01D19942F8D10168890300D4BD
:100FB000FEE74168416041684160416841F48061F9
:100FC0004160416821F440314160416841F4403161
:100FD000416041680D4A1140416041680C4A11432B
:100FE0004160016841F08071016001688901FCD5B0
:100FF000416821F003014160416841F00201416014
:1010000041680907FCD5704700100240FFFFC3F795
:10101000000004081B4A10B5811A1415904229D00B
:101020000DDCB0F1804F14D0174940181CD0A042FD
:101030001DD0B0F5006F23D140F2034409E0A14276
:101040001BD0B1F58E3F0CD0B1F5923F18D140F2D4
:101050000D342046FFF758FF2046BDE81040FFF74B
:1010600045BF40F20B34F4E740F20144F1E740F2AF
:101070000244EEE740F20444EBE740F20544E8E7BF
:1010800010BD00000010004000FCFFBF016841F0EF
:10109000010101607047000030B50A888262284B68
:1010A000284C98421FD0B0F1804F1CD0264A904265
:1010B00019D0264A904216D0254A904213D0A04219
:1010C00011D0244A90420ED0234A90420BD0234A9A
:1010D000904208D0224A904205D0224A904202D043
:1010E000214A90420FD1026822F070020260026829
:1010F0008D7805F060052A43026002680D7905F0DD
:1011000010052A4302608A68C262184A90420CD0D5
:10111000174A904209D0026822F4407202600268C5
:101120008D8905F440752A430260984201D0A0429F
:1011300001D1897B0163416941F00101416130BD09
:10114000002C014000340140000400400008004031
:10115000000C0040004C0140005001400054014090
:1011600000180040001C004000200040001000401B
:1011700000140040C2680A43C260704702698A4393
:1011800002617047C1F30801416070472DE9F047E3
:1011900004460878DFF8A080284E0D4610F01F00A6
:1011A0004FF0000748F6BF7904D0012812D002287A
:1011B00026D118E06078022801D0032804D168887D
:1011C000012803D002281BD0BDE8F087E770D4F8CF
:1011D000C42024E06078022812D00328F4D10879D2
:1011E0000128F1D90CE029796078022804D003287D
:1011F000EAD1688850B10FE00029E5D08029E3D01A
:101200002046BDE8F047002100F0C4B921B1802993
:1012100002D0204600F060F8D4F8C42029462046C9
:101220009047D8F800008780306800EA090080F015
:1012300030003060C8E700005C010020005C004026
:1012400050F8B41F89781180006870470021C17080
:101250000748012202600160021D1160044A103239
:101260001160044A4FF41F41116001607047000093
:10127000405C00405401002010B50C464178032921
:1012800016D12179012913D8D0F8C42021469047DE
:10129000E18801430FD10949002009688880084985
:1012A000086848F6BF72104080F03000086002E025
:1012B000002100F06FF9002010BD00005C0100204B
:1012C000005C004050F8B01F09781180006870473A
:1012D000002100F05FB9000010B5CC0901F07F01DA
:1012E00001EB810200EB82024FEA8100174948F6C8
:1012F0008F730844D0F8001C11D01032490606D56F
:10130000D0F8001C194041F04001C0F8001CD0F892
:10131000001C48F6BF73194081F0300110E06032C4
:10132000490406D5D0F8001C194041F48041C0F8AA
:10133000001CD0F8001C4BF68F73194081F440510B
:10134000C0F8001C0020107010BD000000500040CC
:10135000074B10B503EB41010023521C04E031F8A8
:10136000044B20F8024B5B1CB3EB520FF7D310BDBC
:1013700000600040074B10B503EB41010023521CF5
:1013800003E030F8024B5B1C10C1B3EB520FF8D3F3
:1013900010BD000000600040CB094FEA41601349D6
:1013A00048F68F7201EBD050D0F8001C0DD04906E2
:1013B00006D5D0F8001C114041F04001C0F8001CD7
:1013C000D0F8001C48F6BF720CE0490406D5D0F8EE
:1013D000001C114041F48041C0F8001CD0F8001CF2
:1013E0004BF68F721140C0F8001C7047005000404F
:1013F0002DE9F04F9378002503F00F04D37813F014
:10140000030306D0012B0AD0022B0AD0032B08D1EC
:1014100002E04FF4007504E04FF4C06501E04FF4C2
:1014200080654E4B254303EB8403C3F8005C96783C
:1014300095885FEAD6184A4E48F68F7948F6BF7706
:101440004BF68F7C32D004EB840200EB82004561C6
:10145000B268B08802EB04146D1C2080726825F01D
:10146000010002447260012917D1D3F8001C41F435
:10147000807101EA0901C3F8001C228171680844E7
:101480007060D3F8000C384080F03000C3F8000CD6
:10149000D3F8000C00EA0C0004E0D3F8000C38404C
:1014A00080F02000C3F8000CBDE8F08F04EB840846
:1014B00000EB88004FF0FF3A4FF6FF7B45660129AD
:1014C0002AD1D3F8000C40F4807808EA0908C3F860
:1014D000008CD3F8008C08EA090848F04000C3F8F3
:1014E000000CD6F80880B08808EB04183E2DA8F848
:1014F000000007D91F3525F01F000AEB401545F401
:10150000004504E06D1C25F001000BEA4025A8F819
:1015100004507568284470609088B268B58802EB02
:1015200004123E28158107D91F3020F01F000AEB56
:10153000401040F4004004E0401C20F001000BEAA1
:1015400040209081D3F8000C012900EA0C0002D061
:1015500080F40050A6E7C3F8000C9EE7005000405E
:101560005401002010B501F07F0101EB810400EB74
:101570008400C0E91A23064800EB8100D0F8001C63
:101580004BF68F72114081F44051C0F8001C10BD21
:101590000050004030B501F07F03CC0901F07F011D
:1015A00001EB810200EB82024FEA810012490844FC
:1015B000D0F8004C08D048F6BF752C4084F01004D9
:1015C000C0F8004C103207E04BF68F752C4084F4C5
:1015D0008054C0F8004C603201201070002B09D1FB
:1015E000D1F8000C4BF6BF72104041F2100250408F
:1015F000C1F8000C30BD00000050004038B501F0CB
:101600007F0404EB840100EB810000251830009575
:101610002CC0194650F8102C1438934202D91146A8
:10162000009200E000910D4D8AB28068A96801EB3C
:1016300004110988FFF79EFEA968009801EB0411C8
:101640008880074800EB8400D0F8001C48F6BF7281
:10165000114081F03001C0F8001C38BD5401002059
:101660000050004008B500220092C988012903D02B
:101670000021FFF78FFF08BD4178022907D0032919
:10168000F6D1012302468021FFF7B8FF08BD0123F0
:101690006A46F8E7F8B5064608780C46C1060DD04C
:1016A00000F01F00012832D1D6F8C420002A2ED025
:1016B00001B021463046BDE8F04010476188002562
:1016C000080AC9B2ADF8005003280BD8052909D87B
:1016D0000F4A02EB80006A4650F8043C30469847B7
:1016E000054603E030460021FFF754FFBDF8000037
:1016F00000280CD0E388002B09D0834200D9034690
:10170000ADF800302A4680213046FFF777FFF8BD5C
:101710009C0100204278022A09D0032A0AD10A79C2
:10172000012A04D8D0F8C420002A03D01047002191
:10173000FFF730BF70471CB50022ADF80020ADF8B0
:1017400004200A7812F01F0204D0012A0FD0022AC6
:101750002CD115E04178022901D0032929D1C17883
:1017600011B10221ADF8001002236A462DE0427843
:10177000022A1BD0032A1CD109790129F4D915E0CA
:1017800009794278022A0DD0032A12D10B064FF0B4
:1017900001020FD501F07F0101EB810100EB810116
:1017A000097C0DE0002904D0802902D00021FFF738
:1017B000F1FE1CBD01EB810100EB810191F860108D
:1017C00009B1ADF80420022301AA8021FFF716FF1A
:1017D0001CBD000070B5054601EB810005EB8004DF
:1017E000103459B1D4E90302801AE06052D083B2B8
:1017F0002846A268FFF702FF002070BDEA680026B5
:10180000E2B36168E068884208D9401AE06083B2B8
:1018100080212846A268FFF7F1FE0DE0B0FBF1F34E
:1018200001FB130179B990420DD200231A468021A1
:101830002846FFF7E3FEEE6000231A4619462846C5
:10184000FFF790FED8E7E6606878032805D100220C
:10185000D5F8C8300121284698471348016848F652
:101860008F7241F480711140016001684BF68F72F4
:10187000114081F440510160EE60BDE7FFE70B4984
:1018800008780028B8D0084A40F080004C32106038
:101890000E70B1E768780328AED10A46D5F8C83093
:1018A000012128469847A7E7005C0040640100201A
:1018B0000F48017891B10178491E0170017869B92A
:1018C0000C490B780C4A012B0AD013689BB243F0E9
:1018D000100313600322027001200870002070477B
:1018E00010684FF6EF73184010600020F5E7000015
:1018F0006001002061010020405C00402DE9FC5F98
:101900004FF000090746ADF80090ADF80490DFF8FD
:1019100004A1DFF80481DFF804B171E0BDF8000034
:1019200000F00F050AEB8500D0F8001CADF804109C
:10193000BDF80010C90605EB85011DD4BDF80420D3
:1019400007EB8101103112065AD5D0F8002C48F669
:101950000F731A40C0F8002CD8F8000000EB0510F7
:101960008088C0F3090008618A68104488602946AD
:101970003846FFF72FFF43E007EB8104BDF8041062
:10198000603409043CD5D0F8001C40F68F72114039
:10199000C0F8001CD8F8000000EB051081898E0506
:1019A000B60D13D0BDF8041009050AD5D8F800000B
:1019B00032460189381DFFF7CBFC384600F027FA84
:1019C00024E001893246A068FFF7C2FC2069304458
:1019D0002061A0683044A060E068801BE06002D015
:1019E0006168B14206D92946384600F0C9F8C4F802
:1019F000109005E083B229463846A268FFF7B2FD91
:101A0000DBF80000ADF80000000487D40020BDE83A
:101A1000FC9F0000005000405C010020445C00403E
:101A200030B5174C1749402323600A6848F68F7574
:101A300013802168403111814031216048F2FF71EB
:101A4000918143614366104B002103EB8102D2F880
:101A5000004C2C400C43C2F8004C491CC9B204296C
:101A6000F3D30A4A8021116008494C390A6892B2BE
:101A70000A6043F220220A6001214170002030BD3B
:101A8000580100205C010020005000404C5C0040E8
:101A90007CB50020ADF80000ADF80400314C2068A2
:101AA000ADF80000304EBDF800103088084000044A
:101AB00002D52E48FFF722FF3088BDF800102B4DCD
:101AC0000840C00409D54EF6FF702060A878687001
:101AD0002748007808B9FFF72FFA3088BDF80010C2
:101AE0000840000514D51F48001F0068C0060FD429
:101AF0006878A870042068701E48007810B100F063
:101B0000B7F902E01C49032008704FF2FF70206013
:101B10003088BDF800100840800508D54FF6FF500A
:101B2000206016491148096809B10968884730885A
:101B3000BDF800100840C00505D54FF6FF602060D5
:101B40000A48FFF7B5FE3088BDF800100840400590
:101B500007D54FF6FF302060BDE87C400348FFF713
:101B60005FBF7CBD445C00405401002000000020A9
:101B7000610100206201002060010020500100206E
:101B800070B5044601EB810004EB8000603019B1B0
:101B9000607803282CD031E0194DE16811B3426818
:101BA000C168914208D9891AC1608BB2826800214C
:101BB0002046FFF7D7FC21E06078032805D10022FA
:101BC000D4F8C8301146204698470E4800210068D6
:101BD0008180286848F6BF72104080F0300028608D
:101BE000E1600BE0286848F68F610840286005E056
:101BF0000A46D4F8C830002120469847002070BD1E
:101C0000005C00405C010020704701EB810100EBAB
:101C10008100B0F8700080B27047000030B48A884C
:101C2000E2B9CA88D2B989780E4A01F07F011170F1
:101C30004278032A12D00C4B00221B689A800B4B6F
:101C40001A6848F6BF74224082F030021A6009B167
:101C5000022100E00121417030BC704730BC0021FE
:101C6000FFF798BC640100205C010020005C00408C
:101C70002DE9F0471F4B897804465970012905D991
:101C80002046BDE8F0470021FFF784BC6278DFF80A
:101C900068800026194DD8F8000048F6BF77022A60
:101CA00011D0032A23D199B1227899468A4218D0BB
:101CB000D4F8C03011462046984799F80110217099
:101CC000D4F8BC2009E061B1217003206070F7E70F
:101CD000022060702170D4F8C02020469047D8F8C8
:101CE000000086802868384080F030002860BDE819
:101CF000F0870000640100205C010020005C0040CF
:101D0000704700002DE9F0410A460978204E214C29
:101D100011F01F014FF0000548F6BF7704D00129EC
:101D20000CD0022920D112E04178022901D00329E8
:101D30002BD15188012928D1C1701FE04178022997
:101D400012D0032921D1117901291ED90CE0117972
:101D50004378022B04D0032B17D152884AB10DE0EF
:101D6000002912D0802910D0BDE8F0410021FFF7F2
:101D700011BC19B1802901D0FFF70CFC30688580B7
:101D80002068384080F030002060BDE8F08100001D
:101D90005C010020005C004010B54278022A15D09A
:101DA000032A12D10A79012A10D8D0F8C42002B12E
:101DB000904709490020096888800849086848F662
:101DC000BF72104080F03000086010BDBDE81040C8
:101DD0000021FFF7DFBB00005C010020005C004039
:101DE00010B503790B7043794B708379C47903EB99
:101DF00004234B80037A447A03EB04238B80837A99
:101E0000C27A03EB022293B2CB80C36010BD1CB533
:101E100004466946FFF7E4FF9DF8001011F06001E9
:101E200009D020290CD0402903D000212046FFF7FB
:101E3000B1FB00201CBD6946204600F007F8F8E71A
:101E400069462046FFF718FAF3E7000010B54A7814
:101E5000024B53F822209047002010BD680100205B
:101E6000D0F8B80050F821000178118070470000C8
:101E70000348016889B241F00C010160704700001D
:101E8000405C0040704718034600650072006E0019
:101E900061006E00640065007A004B0041000000A4
:101EA0002003500075006C0073006500200067007F
:101EB00065006E0065007200610074006F007200C2
:101EC00000002C03500075006C00730065002000BA
:101ED000670065006E0065007200610074006F00AD
:101EE000720020007600200031002E00300000003B
:101EF0001201000202000040E9288A0100010102EB
:101F00000301040309040000021F0008861E0008E4
:101F1000A01E0008C21E0008381F00080000002094
:101F2000A80100006C010008E01F0008A8010020C3
:101F3000E8410000C801000801B013F01E14080CAD
:101F4000011420081F140865081B0845041A910491
:101F500013B90752081A7C085A800C41E2FFB90FE6
:101F600033C201892B14090243130201258032096F
:101F7000041B01020B13052416100105240110098E
:101F8000010424020205240617010705820308152F
:101F90000A09040133020A2E0705030240072A81B9
:101FA0000791390C2A600729642113371714088D0B
:101FB000111408091C4C08051D081A1D0413951658
:101FC0001B0801101A65081A71101A15281A9910A1
:101FD0001A85E813C5121B0841041A610C000000A1
:0400000508000131BD
:00000001FF
