:020000040800F2
:1000000098430020FD490008054A0008074A0008F7
:10001000094A00080B4A00080D4A000800000000C9
:100020000000000000000000000000000F4A00086F
:10003000114A000800000000134A0008154A000891
:10004000174A0008174A0008174A0008174A00080C
:10005000174A0008174A0008174A0008174A0008FC
:10006000174A0008174A0008174A0008174A0008EC
:10007000174A0008174A0008174A0008174A0008DC
:10008000174A0008174A0008174A0008174A0008CC
:10009000B1060008174A0008174A0008174A000866
:1000A000174A0008D5060008174A0008174A000832
:1000B000BD060008174A0008174A0008174A00083A
:1000C000174A0008174A0008174A0008174A00088C
:1000D000174A0008B9060008174A0008174A00081E
:1000E000174A0008174A0008174A0008174A00086C
:1000F000174A0008174A0008174A0008174A00085C
:10010000174A0008174A0008174A0008174A00084B
:10011000174A0008174A0008174A0008174A00083B
:10012000174A0008174A0008174A0008174A00082B
:1001300000F002F800F05AF80AA090E8000C82449F
:100140008344AAF10107DA4501D100F04FF8AFF27C
:10015000090EBAE80F0013F0010F18BFFB1A43F0A5
:1001600001031847E44B0000044C00000A444FF020
:10017000000C10F8013B13F0070408BF10F8014B06
:100180001D1108BF10F8015B641E05D010F8016B4B
:10019000641E01F8016BF9D113F0080F1EBF10F8AF
:1001A000014BAD1C0C1B09D16D1E58BF01F801CBD2
:1001B000FAD505E014F8016B01F8016B6D1EF9D555
:1001C0009142D6D37047000000230024002500266A
:1001D000103A28BF78C1FBD8520728BF30C148BFAA
:1001E0000B6070471FB51FBD10B510BD04F029FD91
:1001F0001146FFF7F7FF00F035F804F047FD03B4B0
:10020000FFF7F2FF03BC04F04FFD00002DE9F041C1
:100210000646002400270025A04614E02F4620466D
:10022000611CCCB2355C0A2F04D10D2D02D14FF0E8
:10023000010805E00D2F03D10A2D01D14FF001086F
:10024000601ED3490D54B8F1000F01D1FF2CE5D148
:10025000D0484078032803D12146CE4800F0B8FEAC
:10026000BDE8F08190B000BF00F0A8FA00F0C3FA3A
:1002700000F0E8FAC74800F0CDFE00F0BDFB00BF7B
:10028000C54AC649C64800F0CFFCC348007848B10B
:100290000121002000F06CFC43F6FF704FF080411C
:1002A000886208E00021084600F062FC4FF6FF700B
:1002B0004FF080418862002500BFB648407803288F
:1002C0001FD1B8480078012803D1B24800F074FE6D
:1002D00017E0B5480068A0B100240BE0AC48015D10
:1002E000B24800F019FAAA48015DB14804F064FA76
:1002F000601CC4B2AC4800688442EFD30020AA4915
:100300000860AA4800F0F8F90028D6D0A74800F005
:1003100022FA0646092D18D2DFE805F005185A6DB5
:100320007B8996A3E600304600F029FA0546072DA2
:100330000BD100209A4908609E490860FF209E4921
:1003400008700021304600F013FC1FE143F6FF70F7
:100350004FF0804188620021084600F009FC00F05F
:100360008FFB964801689348006800F0D1FC044672
:100370004FF6FF70844211D2012C02D190480460E4
:1003800002E0601E8E49086000208D49091D08604A
:1003900040F2CF208A49091F08600DE06420B4FBB9
:1003A000F0F0401E864908600920091D086041F6EA
:1003B0001F408349091F086000BF82A0FFF726FF86
:1003C00000207C490860012100F0D2FB0025DDE01F
:1003D0004FF6FF704FF0804188620021084600F020
:1003E000C7FB00F04DFB0020724908607AA0FFF7C0
:1003F0000DFF0025CAE00121002000F00AFC7BA0CF
:10040000FFF704FF644A6549654800F029FC0025B0
:10041000BCE00021084600F0FCFB79A0FFF7F6FEE7
:100420005D4A5E495E4800F01BFC0025AEE00120FD
:100430005949087077A0FFF7E9FE574A57495848CD
:1004400000F00EFC0025A1E000205349087075A0C3
:10045000FFF7DCFE504A5149514800F001FC0025ED
:1004600094E055480078FF2810D15448006802F005
:1004700063F9514806707048067000F001FB0020D7
:10048000474908606DA0FFF7C1FE2CE0304600F040
:1004900049FC40B37048006828BB414800682028E8
:1004A00005D26E494548006800F056FA12E03C4912
:1004B00009684909414A126802EB812000F02AFAD2
:1004C0003749096849093D4A126802EBC11063497E
:1004D00000F042FA304A3149314800F0C1FB60A0D7
:1004E000FFF794FE002551E036BB402260A168462C
:1004F00004F072FB2A48006818B930208DF82400F7
:1005000002E031208DF824002448007818B1312011
:100510008DF82E0002E030208DF82E001E48007865
:1005200018B131208DF83B0002E030208DF83B00FF
:100530006846FFF76BFE27E01848007818B1FF20E7
:100540008DF8380002E000208DF83800124800785D
:1005500018B1FF208DF8390002E000208DF8390035
:100560000F480068000A8DF83A000D480068C0B2D4
:100570008DF83B000D208DF83C000A208DF83D00E1
:100580000EA8FFF743FE00BF002500BF00BF94E6A2
:10059000F802002000000020DD000020DC00002028
:1005A000E4000020010100200401002034020020AA
:1005B00000380140E0000020DE000020D4000020D0
:1005C0002C2C014053746172742067656E657261F2
:1005D00074696F6E0A0D000053746F702067656E4A
:1005E00065726174696F6E0A0D0000005265706576
:1005F000617420666C6167207365740A0D000000E9
:1006000052657065617420666C6167207265736500
:10061000740A0D00536574206175746F7374617290
:10062000740A0D005265736574206175746F73747C
:100630006172740A0D000000CC00002050756C73CC
:10064000652073746174652069732073656C6563DC
:100650007465640A0D000000E8000020B401002069
:100660004C6F616420697320656E6465640A0D00D7
:1006700047656E657261746F72207620312E30206E
:10068000323032322D30332D31392053616D706C60
:1006900065733A202A205265706561743A202A20D9
:1006A0004175746F73746172743A202A0A0D0000E8
:1006B00010B501F070F910BD00BFFEE710B50121C3
:1006C000880703F0AFFF0748C06880F40050054971
:1006D000C86010BD10B50121034803F0A3FF00F06E
:1006E000E8F910BD00100140002C01400021A0F8E5
:1006F0004010A0F8421070470146B1F84000B1F830
:100700004220904206DDB1F84000B1F84220801A44
:1007100080B270470020FCE710B503460C4618462F
:10072000FFF7EAFFFF2808D1002023F8400F1988BF
:10073000481C23F840095C5406E033F8401F188831
:10074000401C23F840095C5410BD0021A0F8401063
:10075000A0F84210704700B5024632F8421F1088D8
:10076000401C22F84209535CB2F84000B2F8421033
:10077000884202D11046FFF7E8FF184600BD014647
:100780000020092916D2DFE801F0150507090B0D35
:100790000F11130001200FE002200DE003200BE0F9
:1007A000042009E0052007E0062005E0072003E01B
:1007B000082001E0002000BF00BF704710B5994835
:1007C000806940F01C00974988610846C06940F084
:1007D0000100C8610846806940F40060886140F209
:1007E000177002F00DFE4FF0806002F094FE0020C2
:1007F00002F0D3FE10BD10B502F09BFB4FF4005386
:1008000001221421884802F09EFB4FF4006303226A
:100810001821864802F097FB4FF4805303221821D9
:10082000824802F090FB4FF48073032218217F4826
:1008300002F089FB4FF48053032210217C4802F020
:1008400082FB10BD00B589B07A4803F025F840F26C
:10085000CF20ADF814000020ADF81600ADF8180058
:100860000920079005A9734803F08AF8012171480F
:1008700003F0C4FE6F48006840F008006D4908604E
:100880004FF0804003F008F84FF6FF70ADF8040019
:100890000020ADF80600ADF808004FF4FA700390A0
:1008A00001A9000703F06CF80121880703F0A6FEF8
:1008B0004FF0804003F0BAF809B000BD10B55E48B3
:1008C00003F0C0FE4FF4E1315B4803F0FFFE00216E
:1008D000594803F03FFF0821574803F05DFF04210A
:1008E000554803F061FF40F20531534804F03FF8EA
:1008F000514803F047FF10BD4E48006840F001002A
:100900004C49086070474B48006820F00100494995
:100910000860704749494A4A51604A49516000E0BD
:1009200000BF4749C96801F001010029F8D14449D5
:10093000096941F00201424A1161114648610969A1
:1009400041F04001116100E000BF3D49C96801F07C
:1009500001010029F8D1704702463848384B5860E9
:100960003848586000E000BF3548C06800F001001A
:100970000028F8D13248006940F00100304B18617E
:1009800000200DE000E000BF2D4BDB6803F0010309
:10099000002BF8D151F8203042F82030431CD8B257
:1009A0002028EFDB00E000BF2548C06800F0010010
:1009B0000028F8D12248006920F00100204B18617E
:1009C0001846006920F080001861704701460868E9
:1009D000704740B116490C31096841F48051144AFE
:1009E0000C32116007E012490C31096821F4805182
:1009F0000F4A0C321160704710B54FF4C06002F01E
:100A0000D1FB00220121142002F0D1FB0322114668
:100A10001C2002F0CCFB02221146192002F0C7FB79
:100A200010BD00000010024000100140000801400D
:100A3000000C0140002C01400038014023016745B3
:100A400000200240AB89EFCD10B54FF6FF74A042F5
:100A50000BD2012801D1086001E0441E0C60002483
:100A6000146040F2CF241C6009E06424B0FBF4F46D
:100A7000641E0C600924146041F61F441C6010BD04
:100A800098480078012806D19748006840F48050C3
:100A90009549086005E09448006820F48050924928
:100AA0000860704710B50446E1B29048FFF734FE85
:100AB00010BD10B58E480068401E8E4909688842F6
:100AC00022D98B480068F8B18748006880F48050CC
:100AD0008549086087490968491C864A11600846AB
:100AE0008549096800F014F90446844B834A0832AA
:100AF000111FFFF7A9FF81482838006840F0010066
:100B00007E492839086032E079480068401E7949FA
:100B1000096888422BD17648006840B3784800784D
:100B2000D0B10020734908607348016871480068BB
:100B300000F0EEF80446714B704A0832111FFFF7BF
:100B400083FFFFF79DFF6D482838006840F00100E3
:100B50006A49283908600AE06348006880F48050D8
:100B600061490860002063490860FFF7CCFE10BDB2
:100B700010B5024600209AB941B1604B283B1B6872
:100B800043F001035D4C283C236007E05B4B283BAE
:100B90001B6823F00103594C283C2360012001E02D
:100BA000002000BF00BF10BD10B5044650480068CB
:100BB00000F01F001F2821D14D480068F0B14C49BA
:100BC0000868411C4A4A116000F01F014D4A42F872
:100BD0002140474909684909474A126802EB8120C8
:100BE00001F0AAFD42490968434A126802EB8101FB
:100BF000A1F180004349FFF7AFFE09E03C490868D6
:100C0000411C3B4A116000F01F013E4A42F821405E
:100C100010BD024600201AB9394B1970012001E0BD
:100C2000002000BF00BF704770B504460D46164651
:100C300035480068FFF7CAFE401C20B13248006802
:100C4000FFF7C4FE206030490968486800F042F8A8
:100C500028702D490968886800F03CF8307070BD34
:100C600070B504460D461646206828490860287865
:100C700000F029F825494860307800F024F823492D
:100C8000886021480068FFF745FE20491E4800683B
:100C9000FFF762FE70BD19482838006820F0010097
:100CA00016492839086000201449083108600120DD
:100CB000091F086011482838006840F001000F49FA
:100CC000283908607047014611B14FF0F030704785
:100CD0000020FCE70146B1F1F03F01D1012070474F
:100CE0000020FCE7CC0000200C0C01403402002066
:100CF000E4000020E0000020D4000020282C014067
:100D0000DC000020B4010020D00000207802002088
:100D100070B504460D4605EB8400FFF757FE064606
:100D2000304670BD10B5044617480078032810D12E
:100D3000164800682043154908600846006818B145
:100D400008460068FFF730FF00200F4908700120B7
:100D500010BD0D48007810B900200C4908600A4801
:100D60000078401C2021A1EBC00104FA01F00749E2
:100D7000096808430549086003480078401C024997
:100D800008700020E4E70000EC000020E8000020EC
:100D900070B504460D46964A0021204600F07EF9C3
:100DA000934AD21F0021204600F078F9904A173A62
:100DB0000021204600F072F9002070BD70B5044695
:100DC0000D468121204600F0DCFA0321204600F088
:100DD000D8FA8221204600F0D4FA002070BD0146E6
:100DE00084480068FF2820D083480078824A5278DF
:100DF00040EA0220804A927840EA02407E4AD27855
:100E000040EA02607D4A10607B48007910717A48A0
:100E1000407950717848807990710120784A10703B
:100E2000784A1070FF20734A1060002070472DE947
:100E3000F04107460D461446012D18D1012C16D15C
:100E400004EB840107F1100000EB81067168306942
:100E5000884206D100231A462146384600F025FB79
:100E600002E00120674908700020BDE8F08125B943
:100E70001CB93846FFF7B3FF0DE065B9032C0AD162
:100E800001205F4908700321384600F02CFC5E49C0
:100E900008600020E9E70220E7E72DE9F041054678
:100EA0000C463A26524F333F207800F0600000286D
:100EB0004AD020287BD16078042815D007DC78B18F
:100EC00001280ED002280DD003283AD10BE02028AB
:100ED0000BD0212813D0222831D0232831D12FE064
:100EE00030E02FE02EE02DE02CE0607841490860F2
:100EF000E388414A0021284600F0A5FA22E03F4855
:100F000000783D4908703D480088000A48703B4819
:100F10000068000C887039480068000EC8703748B7
:100F20000079087135484079487134488079887172
:100F3000E3880A468021284600F0B7FA02E001E083
:100F400000E000BF00BF33E06078062816D00A2812
:100F500002D00B2828D106E001232C4A8021284604
:100F600000F0A3FA21E0A07818B9A078274908601A
:100F700003E02146284600F088FE16E06088212123
:100F8000B1EB202F08D1E0883A2801DD3A2000E0BB
:100F9000E0880646164F2A3F33463A4680212846C7
:100FA00000F083FA01E002E000BF00BF00BF00BF15
:100FB00000BF0020BDE8F08110B5044600201049B4
:100FC00008704023124A0321204600F03CFA10BD6D
:100FD00070B505460C46402C08D800200949087019
:100FE000A3B20B4A8121284600F05FFA70BD0000D1
:100FF00050010020F0000020F80000200C0100202B
:10100000010100200001002004010020F400002064
:10101000F80200200021C1700121FE4A1160002168
:101020001160121D1160FB4A103211604FF41F4114
:10103000F94A11601146098889B2F64A1160704771
:1010400010B501290FD1F54B03EB8002D2F8002C2B
:1010500048F68F731A4042F04002F04C04EB8003D4
:10106000C3F8002C0FE071B9EC4B03EB8002D2F80F
:10107000002C48F68F731A4042F48042E74C04EB90
:101080008003C3F8002C10BD0120E2490860002055
:10109000091D08600320091F086070472DE9F0430F
:1010A00005460B4614462246967806F00F000021AE
:1010B000D67806F0030636B1012E0CD0022E05D0EC
:1010C000032E0BD104E04FF4007108E0002106E08C
:1010D0004FF4C06103E04FF4806100E000BF00BF47
:1010E00041EA0006B6B2DFF834C30CEB8007C7F85C
:1010F000006C91889678F611002E77D000EB800C6A
:1011000005F1100606EB8C077960C54E3688DFF8CE
:1011100014C3DCF800C00CEB001CACF800604E1CE3
:1011200026F00101BE4E36680E44DFF8F4C2CCF85A
:101130000060012B44D1DFF8E4C20CEB8006D6F846
:10114000006C46F4807648F68F7C06EA0C06DFF8E1
:10115000CC8208EB800CCCF8006CB14E3688DFF8FE
:10116000C4C2DCF800C00CEB001CACF80860AC4E4C
:1011700036680E44DFF8A8C2CCF8006000BF08EB68
:10118000800CDCF800CC48F6BF780CEA080686F044
:10119000300CDFF8889209EB8008C8F800CC00BF5B
:1011A00000BFC84608EB800CDCF800CC4BF68F780B
:1011B0000CEA0806C84608EB800CCCF8006C13E07B
:1011C00000BFDFF8588208EB800CDCF800CC48F652
:1011D000BF780CEA080686F0200CDFF8409209EB95
:1011E0008008C8F800CC00BFC9E0FFE700EB800C26
:1011F00005F1600606EB8C077960012B55D1DFF80D
:101200001CC20CEB8006D6F8006C46F4807648F6DB
:101210008F7C06EA0C06DFF8048208EB800CCCF821
:10122000006CC4460CEB8006D6F8006C48F68F7C48
:1012300006EA0C0646F0400608EB800CCCF8006C81
:10124000774E3688DFF8DCC1DCF800C00CEB001C00
:10125000ACF800603E2912D901F11F0626F01F01EB
:101260000126C6EB4116B6B246F40046DFF8B4C11B
:10127000DCF800C00CEB001CACF804600EE04E1C67
:1012800026F001014FF6FF7606EA4126DFF894C109
:10129000DCF800C00CEB001CACF80460604E366853
:1012A0000E44DFF87CC1CCF8006091885C4E368833
:1012B000DFF870C1DCF800C00CEB001CACF8086073
:1012C0003E2912D901F11F0626F01F010126C6EBA7
:1012D0004116B6B246F40046DFF848C1DCF800C05B
:1012E0000CEB001CACF80C600EE04E1C26F001016B
:1012F0004FF6FF7606EA4126DFF828C1DCF800C089
:101300000CEB001CACF80C60012B23D100BFDFF804
:101310000C8108EB800CDCF800CC4BF68F780CEAE3
:101320000806DFF8F88008EB800CCCF8006C00BFF2
:1013300000BF08EB800CDCF800CC48F6BF780CEA64
:10134000080686F0200CDFF8D49009EB8008C8F876
:1013500000CC13E000BFDFF8C48008EB800CDCF8A1
:1013600000CC4BF68F780CEA080686F4005CDFF8B8
:10137000AC9009EB8008C8F800CC00BF00BFBDE806
:10138000F08330B5034601F07F00CA113AB300BFC5
:10139000224C04EB8002D2F8002C02F040026AB129
:1013A00004EB8002D2F8002C48F68F74224042F001
:1013B00040021A4D05EB8004C4F8002C00BF00BFAA
:1013C000164D05EB8004D4F8004C48F6BF7504EACE
:1013D0000502124D05EB8004C4F8002C32E000BF7A
:1013E0000E4C04EB8002D2F8002C02F480426AB169
:1013F00004EB8002D2F8002C48F68F74224042F4AD
:101400008042064D05EB8004C4F8002C00BF00BFED
:10141000024D09E0405C00405801002000500040AF
:101420005C0100206001002005EB8004D4F8004C32
:101430004BF68F7504EA0502B04D05EB8004C4F845
:10144000002C00BF30BD2DE9F041044601F07F00C3
:1014500000EB800704F1600606EB8705AA60EB60ED
:1014600000BFDFF898C20CEB8007D7F8007C4BF682
:101470008F7C07EA0C0686F44057DFF8808208EB81
:10148000800CCCF8007C00BFBDE8F08130B59C4DED
:1014900005EB4104002303E0058820C4801C5B1C8D
:1014A000551CB3EB550FF7D330BD2DE9F843064675
:1014B0000F46904699460020009007F07F0505EB07
:1014C000850106F1100000EB8104C4F80880C4F81F
:1014D0000C90002020616168E068884202D9606851
:1014E000009001E0E0680090009B9AB2854B1B6879
:1014F00003EB05131988A068FFF7C8FF814900981E
:10150000096801EB0511888000BF7C4A02EB850168
:10151000D1F8001C48F6BF7201EA020080F03001E9
:10152000764B03EB8502C2F8001C00BFBDE8F883D0
:10153000F0B5024601F07F00CC11BCB100EB800594
:1015400002F1100404EB850300BF6C4E06EB80052E
:10155000D5F8005C48F6BF7605EA060484F010056D
:10156000664F07EB8006C6F8005C17E000EB8005CD
:1015700002F1600404EB850300BF604E06EB8005BA
:10158000D5F8005C4BF68F7605EA060484F48055A6
:101590005A4F07EB8006C6F8005C00BF01241C70A0
:1015A00098B900BF554E06EB8005D5F8005C4BF6A8
:1015B000BF7605EA060484F4805585F010054F4F88
:1015C00007EB8006C6F8005C00BFF0BDF0B5024630
:1015D00001F07F00CC117CB300EB800502F1100418
:1015E00004EB850300BF454D05EB8004D4F8004CA7
:1015F00004F040046CB105EB8004D4F8004C48F6CC
:101600008F752C4044F040043C4E06EB8005C5F835
:10161000004C00BF00BF394E06EB8005D5F8005CDA
:1016200048F6BF7605EA060484F03005334F07EB31
:101630008006C6F8005C30E0FFE700EB800502F1B1
:10164000600404EB850300BF2C4D05EB8004D4F847
:10165000004C04F480446CB105EB8004D4F8004CD9
:1016600048F68F752C4044F48044244E06EB8005E8
:10167000C5F8004C00BF00BF204E06EB8005D5F832
:10168000005C4BF68F7605EA060484F440551B4F48
:1016900007EB8006C6F8005C00BF00241C70F0BD9C
:1016A0000246C81140B14806144B03EBD050D0F8A5
:1016B000000C00F030007047104B03EB8100D0F8B5
:1016C000000C0020F7E770B50D4D05EB4104002339
:1016D00004E034F8046B0680801C5B1C551CB3EBE3
:1016E000550FF6D370BD024601EB810302F1600095
:1016F00000EB8300008A80B2704700000050004079
:10170000006000406001002010B502464020FC4B04
:10171000186018460088FB4B1B681880F848006862
:101720004030F74B186018460088F64B1B6818814C
:10173000F34800684030F24B186048F2FF70F14BFC
:101740001B68988140235361536600210FE0EE4BE4
:1017500003EB8100D0F8000C48F68F731840084363
:10176000E94C04EB8103C3F8000C481CC1B2042906
:10177000EDD38020E54B1860E4484C38006880B217
:10178000E24B4C3B186043F220201860012050705F
:10179000002010BD0146DE48007838B3DC480078F0
:1017A000401EDB4A107010460078F8B9D94800781E
:1017B00001280CD1D5480C38006880B220F0100008
:1017C000D24A0C3A10600020D24A10700EE0CF4886
:1017D0000C38006880B240F01000CC4A0C3A10601F
:1017E0000320CB4A10700120CA4A107000207047B5
:1017F00010B50446C848006820B1C74800680168B1
:1018000020468847002010BD10B504466078A070BF
:1018100004206070C148007810B100F013FA02E0B3
:101820000320BB490870002010BD10B50446A07805
:101830006070B848007808B900F0F6F9002010BDD3
:101840002DE9FC410746002500200190009000246E
:1018500095E0BDF8040000F00F05AB4901EB8500F1
:10186000D0F8000C80B20090BDF8040000F0100029
:1018700048BB05EB850107F1100000EB8104BDF8C2
:10188000000000F08000002879D09F4901EB85001E
:10189000D0F8000C48F60F7108409B4A02EB850116
:1018A000C1F8000C9748006800EB05108088C0F371
:1018B000090020612169A0680844A06029463846D3
:1018C00000F0B7FA5BE0002605EB850107F1600048
:1018D00000EB8104BDF8000000F4004000284DD06A
:1018E000894901EB8500D0F8000CC0F30E0048F6E2
:1018F0008F710840844A02EB8501C1F8000C8148D1
:10190000006800EB05108089C0F30906D6B1BDF868
:10191000000000F4006060B17A4800680189324636
:10192000381DFFF7D0FE384600F00DFA0020BDE864
:10193000FC81744A126802EB051211893246A068D4
:10194000FFF7C1FE206930442061A0683044A060E8
:10195000E068801BE060E06810B16068B04206D9C2
:101960002946384600F016FA0020206106E0A089DA
:1019700083B229463846A268FFF765FD00BF634879
:101980000838006880B2019000F4004000287FF41D
:1019900060AF00BFCBE71CB50020019000905B4812
:1019A0000838006880B201905D48008800F400406B
:1019B000BDF80410084010B15A48FFF741FF5848DD
:1019C000008800F48050BDF80410084038B14EF68D
:1019D000FF704E49083908605248FFF726FF50480B
:1019E000008800F40060BDF80410084068B1474862
:1019F0000C38006800F0100038B94A48FFF704FFBF
:101A00004FF2FF704149083908604548008800F4EA
:101A10000070BDF80410084038B14FF6FF503B4944
:101A2000083908603F48FFF7E3FE3D48008800F4AE
:101A30008070BDF80410084038B14FF6FF6033499C
:101A4000083908603748FFF7A5FE3548008800F4DC
:101A50008060BDF80410084038B14FF6FF302B49C4
:101A6000083908602F48FFF74FFE1CBD2DE9FC41E7
:101A7000074600240020019000900025C3E0BDF837
:101A8000040000F00F04204901EB8400D0F8000CA2
:101A900080B20090BDF8040000F0100070BB04EBB1
:101AA000840107F1100000EB8105BDF8000000F093
:101AB00080000028E2D0144901EB8400D0F8000C2B
:101AC00048F60F710840104A02EB8401C1F8000C7F
:101AD000BDF8000000F0400038B10A48006800EB93
:101AE00004108088C0F3090028612969A8680844A7
:101AF000A8602146384600F09CF984E014E000001C
:101B00005C01002060010020005000404C5C00405F
:101B1000640100206601002008010020650100200A
:101B20005801002000000020002604EB840107F18A
:101B3000600000EB8105BDF8000000F400400028C3
:101B400060D0364901EB8400D0F8000CC0F30E00E1
:101B500048F68F710840314A02EB8401C1F8000C4D
:101B6000BDF8000000F0400088B12D48006800EB8F
:101B700004108088C0F30906D6B1294A126802EB26
:101B8000041211883246A868FFF79DFD10E0244832
:101B9000006800EB04108089C0F3090646B1204AB2
:101BA000126802EB041211893246A868FFF78BFD18
:101BB00001212046FFF744FA286930442861A868CB
:101BC0003044A860E868801BE860E86810B1686885
:101BD000B04217D900BF114A02EB8401D1F8001CB2
:101BE00048F6BF7201EA020080F400510B4B03EB90
:101BF0008402C2F8001C00BF2146384600F0CAF833
:101C00000020286100BF0748006880B2019000F4FE
:101C1000004000287FF433AFBDE8FC810050004055
:101C200060010020445C00401348006880B220F04E
:101C30000400114908600846006880B220F00800DE
:101C4000086070470C48006880B240F00C000A49F8
:101C50000860704700B5FFF7E7FF012007490870EB
:101C60000F20074908700448006880B240F0100057
:101C70000149086000BD0000405C00406601002092
:101C80006401002002460020704770B504460D46EE
:101C900000212046FFF74CFC70BD70B504460D4690
:101CA0006078032822D1287901281AD829462046AD
:101CB000D4F8C42090470646E888B0B9AEB900BF52
:101CC0000020FE490968888000BFFD49096848F680
:101CD000BF7201EA020080F03001F94A116000BFD2
:101CE00003E029462046FFF7D0FF04E029462046BE
:101CF000FFF7CBFF00BF00BF002070BD70B50546E9
:101D00000C466078EF4951F820202146284690473C
:101D1000002070BD10B50246101D03780B7043788B
:101D20004B708478C37804EB03234B8004794379A8
:101D300004EB03238B808479C37904EB0323CB80EA
:101D4000CB88D36010BD1CB5044669462046FFF71A
:101D5000E1FF9DF8000000F0600020B1202807D0CE
:101D600040280FD109E069462046FFF7C7FF0EE083
:101D700069462046FFF791FF09E069462046FFF7D4
:101D800081FF04E000212046FFF7D2FB00BF00BF27
:101D900000201CBD70B504460E4606EB860104F11A
:101DA000600000EB81057EBBE06870B36968E8689D
:101DB00088420BD96968E868401AE860A88983B24C
:101DC00000212046AA68FFF73EFB30E06078032838
:101DD00005D1002211462046D4F8C830984700BFEC
:101DE0000020B6490968888000BFB549096848F6EF
:101DF000BF7201EA020080F03001B14A116000BFF9
:101E000000BF0020E06012E008E0FFE7AC48006897
:101E100048F68F610840AA49086008E06078032806
:101E200005D1324600212046D4F8C830984700201A
:101E300070BD70B505460E4606EB860105F1100033
:101E400000EB8104002E64D1E868002853D061685B
:101E5000E068884211D96168E068401AE060A089B2
:101E600083B280212846A268FFF71FFB00231A4691
:101E700019462846FFF7E7FA62E06168E068B0FBC0
:101E8000F1F201FB120090B9E068E96888420ED2D5
:101E900000231A4680212846FFF707FB0020E86050
:101EA00000231A4619462846FFF7CDFA48E00020DD
:101EB000E0606878032805D1002201212846D5F882
:101EC000C830984700BF7E48006840F4807048F6EC
:101ED0008F7108407A49086000BF09684BF68F721D
:101EE00001EA020080F44051754A116000BF00BF52
:101EF0000020E86024E07448007808B37248007855
:101F000040F080006E494C31086000206E49087036
:101F100016E0D4E90301401AE060E06848B9687847
:101F200003280DD1324601212846D5F8C8309847FC
:101F300006E0A08983B231462846A268FFF7B5FAC9
:101F4000002070BD70470346D3F8B00000781080C1
:101F5000D3F8B00070470346D3F8B40080781080FF
:101F6000D3F8B400704710B50346D3F8B84054F81E
:101F700021000478148010BD7CB504460E46002074
:101F800001900090307800F01F0020B101281AD095
:101F9000022867D134E06078022802D003280FD1EC
:101FA00000E000BFE07820B1BDF8040040F002007E
:101FB0000190022301AA80212046FFF776FA00E073
:101FC00000BF00BF53E06078022802D0032814D17C
:101FD00004E031462046FFF758FE0FE03079012833
:101FE00006D8022301AA80212046FFF75EFA03E00B
:101FF00031462046FFF749FE00E000BF00BF36E053
:1020000035796078022802D0032828D107E02DB165
:10201000802D03D031462046FFF737FE20E005F043
:10202000800080280BD105F07F0000EB800104F1D7
:10203000100010F8210058B10120009008E005EBD5
:10204000850104F1600010F8210008B10120009022
:1020500002236A4680212046FFF727FA00E000BFEE
:1020600000BF04E031462046FFF70FFE00BF00BF6F
:102070007CBD70B504460D460026287800F01F0090
:1020800020B1012839D002287DD14CE060780228A7
:1020900002D003282ED100E000BF6888012821D19A
:1020A0000020E07029462046D4F8C420904700BFA5
:1020B000002002490968888000BF07E06001002015
:1020C000005C00406C01002068010020FE490968A6
:1020D00048F6BF7201EA020080F03001FA4A11604E
:1020E00000BF06E06888022803D129462046FFF792
:1020F000CCFD00E000BF00BF4EE06078022802D0B7
:1021000003280DD104E029462046FFF7BEFD08E074
:102110002879012803D929462046FFF7B6FD00E0BB
:1021200000BF00BF38E02E796078022802D0032873
:102130002AD107E02EB1802E03D029462046FFF792
:10214000A4FD22E0688830B92EB1802E03D031463C
:102150002046FFF73BFA29462046D4F8C420904792
:1021600000BF0020D9490968888000BFD6490968A6
:1021700048F6BF7201EA020080F03001D24A1160D5
:1021800000BF00BF01E002E000BF00BF04E029463D
:102190002046FFF77AFD00BF00BF70BD70B5054651
:1021A0000C460026207800F01F0020B1012823D023
:1021B000022865D136E06878022802D0032818D1B9
:1021C00000E000BF6088012812D1E87000BF002045
:1021D000BE490968888000BFBB49096848F6BF72DC
:1021E00001EA020080F03001B74A116000BF00BF71
:1021F00000E000BF00BF48E06878022802D0032852
:102200000DD104E021462846FFF73FFD08E0207984
:10221000012803D921462846FFF737FD00E000BF1B
:1022200000BF32E026796878022802D0032824D142
:1022300007E02EB1802E03D021462846FFF725FD6A
:102240001CE0608830B92EB1802E03D0314628467C
:10225000FFF76EF900BF00209C490968888000BF25
:102260009949096848F6BF7201EA020080F030011E
:10227000954A116000BF00BF00E000BF00BF04E04E
:1022800021462846FFF701FD00BF00BF70BD70B5B5
:1022900004460D46A88848BBE88838BBA87800F0FB
:1022A0007F008B4908706078032804D129462046B6
:1022B000FFF7EBFC1EE000BF00208449096888801E
:1022C00000BF8149096848F6BF7201EA020080F048
:1022D00030017D4A116000BF00BF7D48007810B119
:1022E0000220607006E00120607003E0294620466D
:1022F000FFF7CBFC70BD2DE9F84305460C4620786E
:1023000000F01F0078BB4FF0000860880612A77825
:1023100000200090032E0BD8052F09D8701E6D49A0
:1023200051F820306A46394628469847804603E0EF
:1023300021462846FFF7A9FCBDF8000090B1E088CF
:1023400080B1E088BDF80010884202DDBDF80000D1
:1023500000E0E0880090BDF8003042468021284629
:10236000FFF7A3F80DE0FFE7207800F01F00012839
:1023700007D1D5F8C40020B121462846D5F8C4209D
:102380009047BDE8F883704738B504460D460020F5
:102390000090E888012804D029462046FFF775FC04
:1023A00019E06078022802D003280ED106E001234C
:1023B0006A4680212046FFF778F80BE00123224689
:1023C00080212046FFF771F804E029462046FFF7F8
:1023D0005CFC00BF00BF38BD70B504460D46A87850
:1023E0003D49087008460078012804D9294620464E
:1023F000FFF74BFC9EE06078022802D003286DD1E5
:1024000032E035480078E0B133480078207003208E
:102410006070314801782046D4F8BC20904700BF56
:1024200000202A490968888000BF2749096848F6C2
:10243000BF7201EA020080F03001234A116000BF40
:1024400011E000BF002021490968888000BF1E49B3
:10245000096848F6BF7201EA020080F030011A4AAA
:10246000116000BF00BF64E01B480078E0B90220A3
:102470006070194800782070174801782046D4F819
:10248000C020904700BF002010490968888000BF25
:102490000D49096848F6BF7201EA020080F0300178
:1024A000094A116000BF42E020780B490978884250
:1024B0002BD021782046D4F8C020904706480078D9
:1024C0002070054801780AE0005C004060010020AF
:1024D00068010020A0010020AC01002028E0204677
:1024E000D4F8BC20904700BF00203E49096888808E
:1024F00000BF3D49096848F6BF7201EA020080F05A
:102500003001394A116000BF11E000BF0020354999
:102510000968888000BF3449096848F6BF7201EA3B
:10252000020080F03001304A116000BF00BF00E0BF
:1025300000BF00BF70BD70B504460D46607802282C
:1025400002D0032816D104E029462046FFF79DFB60
:1025500011E02879012808D8D4F8C40048B12946E8
:102560002046D4F8C420904703E029462046FFF7D0
:102570008CFB00E000BF00BF70BD70B504460D4687
:102580006078022802D0032827D104E0294620469B
:10259000FFF77BFB22E02879012819D8D4F8C40082
:1025A00020B129462046D4F8C420904700BF00201F
:1025B0000C490968888000BF0B49096848F6BF725A
:1025C00001EA020080F03001074A116000BF03E019
:1025D00029462046FFF759FB00E000BF00BF70BD51
:1025E0007047000060010020005C0040F84A11685C
:1025F00021F0070141EA0002F54B1A607047F448E8
:10260000006900F0800020B1F248F1494860F248CA
:102610004860F2480088B0F5007F09D9EC48006DA9
:1026200000F0800020B1EB48E9494864EA4848647A
:102630007047E748006900F0800020B1E548E449B0
:102640004860E54848607047E148006D00F0800050
:1026500020B1E048DE494864DF4848647047DC4800
:10266000006940F08000DA490861DC480088B0F574
:10267000007F04D90846006D40F08000086570476F
:10268000D348006940F08000D14908617047D048C4
:10269000006D40F08000CE49086570470020CC49AD
:1026A000C96801F0010109B101200CE0C849C968FD
:1026B00001F0100109B1032005E0C549C96801F026
:1026C000040101B10220704700B50346012200BF9A
:1026D000FFF7E4FF02465B1E012A01D1002BF7D170
:1026E000012A00D10422104600BD0020B849C96C5F
:1026F00001F0010109B101200CE0B549C96C01F0FC
:10270000100109B1032005E0B149C96C01F00401D1
:1027100001B10220704700B50346012200BFFFF758
:10272000E4FF02465B1E012A01D1002BF7D1012AEA
:1027300000D10422104600BD30B50546A7480088E8
:10274000B0F5007F48D9A64885421ED24FF47020CC
:10275000FFF7BAFF0446002C5BD19D48006940F0AA
:1027600002009B49086108464561006940F040004D
:1027700008614FF47020FFF7A7FF044694480069F2
:1027800020F002009249086143E04FF47020FFF707
:10279000C2FF0446002C3CD18D48006D40F0020081
:1027A0008B49086508464565C06900F0020008B11C
:1027B000084645618648006D40F040008449086540
:1027C0004FF47020FFF7A7FF04468148006D20F00A
:1027D00002007F4908651CE04FF47020FFF774FF8A
:1027E0000446B4B97A48006940F0020078490861AB
:1027F00008464561006940F0400008614FF47020D0
:10280000FFF762FF04467248006920F00200704939
:102810000861204630BD10B570480088B0F5007FD3
:1028200038D94FF47020FFF74FFF0446ACB9684821
:10283000006940F00400664908610846006940F0FC
:10284000400008614FF47020FFF73EFF04466048E7
:10285000006920F004005E4908614FF47020FFF722
:102860005AFF044694BB5A48006D40F00400584992
:1028700008650846006D40F0400008654FF4702080
:10288000FFF749FF04465248006D20F0040050490C
:1028900008651BE04FF47020FFF716FF0446ACB943
:1028A0004B48006940F00400494908610846006946
:1028B00040F0400008614FF47020FFF705FF044628
:1028C0004348006920F0040041490861204610BDDA
:1028D00010B500244FF47020FFF7F6FE0446ACB9A3
:1028E0003B48006940F00400394908610846006926
:1028F00040F0400008614FF47020FFF7E5FE044609
:102900003348006920F0040031490861204610BDB9
:1029100010B500244FF47020FFF7FDFE0446ACB95B
:102920002B48006D40F00400294908650846006DF9
:1029300040F0400008654FF47020FFF7ECFE0446BD
:102940002348006D20F0040021490865204610BD91
:1029500070B504460D46002620480088B0F5007F7B
:1029600040D91F48844219D24FF47020FFF7ACFEC3
:102970000646002E4ED11648006940F00100144969
:10298000086125604FF47020FFF79EFE0646104850
:10299000006920F001000E4908613BE04FF470200F
:1029A000FFF7B9FE0646AEBB0948006D40F00100D6
:1029B0000749086525604FF47020FFF7ACFE064616
:1029C0000348006D20F001000149086522E0000085
:1029D0000020024023016745AB89EFCDE0F7FF1FE0
:1029E000FFFF07084FF47020FFF76EFE06468EB912
:1029F000FA48006940F00100F849086125604FF489
:102A00007020FFF761FE0646F448006920F00100DF
:102A1000F2490861304670BD70B504460D46002687
:102A2000EF480088B0F5007F35D2EE48844219D2D5
:102A30004FF47020FFF748FE0646002E43D1E748CA
:102A4000006940F00100E549086125804FF47020DD
:102A5000FFF73AFE0646E148006920F00100DF4931
:102A6000086130E04FF47020FFF755FE064656BB74
:102A7000DA48006D40F00100D849086525804FF420
:102A80007020FFF748FE0646D448006D20F0010094
:102A9000D249086517E04FF47020FFF715FE06468F
:102AA0008EB9CE48006940F00100CC49086125800C
:102AB0004FF47020FFF708FE0646C848006920F072
:102AC0000100C6490861304670BDC448006900F481
:102AD000007020B9C448C1498860C448886000BFFC
:102AE000BE48006900F400700028F9D07047BB4868
:102AF000006920F40070B949086170470020B749A7
:102B0000C96901F0020109B1012000E0002070470D
:102B100030B5A5254FF47020FFF7D6FD0446FFF72A
:102B2000EDFF00B1BB255CBBAC48006940F0200064
:102B3000AA4908610846006940F0400008614FF466
:102B40007020FFF7C1FD0446DCB9A448006920F0FD
:102B50002000A24908610846006940F010000861A1
:102B60009F48203005804FF47020FFF7ADFD0446EC
:102B7000042C0ED09948006920F010009749086194
:102B800007E0042C05D09548006920F01000934917
:102B90000861204630BD2DE9F04304464FF4702013
:102BA000FFF792FD0546E443E6B2C4F30727C4F3FA
:102BB00007484FEA1469E5BB8848006940F01000F7
:102BC00086490861FF2E07D08548283006804FF4DB
:102BD0007020FFF779FD05464DB9FF2F07D08048DB
:102BE0002A3007804FF47020FFF76EFD05465DB96F
:102BF000B8F1FF0F08D07A482C30A0F800804FF4CD
:102C00007020FFF761FD05465DB9B9F1FF0F08D0EF
:102C100073482E30A0F800904FF47020FFF754FD59
:102C20000546042D05D06D48006920F010006B4961
:102C300008612846BDE8F08330B505464FF47020A2
:102C4000FFF742FD04465CBB6448006940F0200089
:102C5000624908610846006940F0400008614FF48D
:102C60007020FFF731FD0446DCB95C48006920F0B4
:102C700020005A4908610846006940F010000861C8
:102C80005748203005804FF47020FFF71DFD0446A3
:102C9000042C0ED05148006920F010004F49086103
:102CA00007E0042C05D04D48006920F020004B4976
:102CB0000861204630BD2DE9F04305460E46174613
:102CC000984600244FF47020FFF7FEFC0446E4B958
:102CD0004248006940F010004049086148EA050098
:102CE0003043384340F0F0093D482230A0F80090CE
:102CF0004FF47020FFF7E8FC0446042C05D0374859
:102D0000006920F01000354908612046BDE8F083D5
:102D100070B505460E464FF47020FFF7D5FC04460B
:102D20009CB92E48006940F010002C4908612E80A3
:102D30004FF47020FFF7C8FC0446042C05D0274848
:102D4000006920F0100025490861204670BD234825
:102D5000C069C0F3870070472048C069C0F38F2066
:102D600070471E48006A70471C4A02EB90110968C0
:102D700000F01F0301229A401143184B03EB9012FD
:102D800011607047154A02EB9011096800F01F03AB
:102D900001229A409143114B03EB9012116070474E
:102DA00001460E4A02EB9110006801F01F03012258
:102DB0009A40104008B1012070470020FCE7074A04
:102DC00002EB9011096800F01F0301229A401143A1
:102DD000024B03EB9012116070470000002002408C
:102DE000E0F7FF1FFFFF070823016745AB89EFCD21
:102DF00030B50146002200230C20B0EB113F12D168
:102E00001C4C04EB11300068C1F384150124AC4064
:102E10002040C2B21748006901F01F050124AC40F0
:102E20002040C3B211E0134C04EB11300068C1F331
:102E300084150124AC402040C2B20E48006D01F060
:102E40001F050124AC402040C3B212B10BB10120D8
:102E500030BD0020FCE7074A02EB10310968C0F3DF
:102E6000841301229A401143024B03EB103211608C
:102E7000704700000020024010B50446C649601AA1
:102E80008C422FD009DCC548204480B1B0F5806F5A
:102E900016D0B0F5006F49D11BE0B0F5806F2AD095
:102EA000B0F5006F30D0B0F5406F3FD135E040F263
:102EB000023000F0DDFA40F2023000F0E7FA36E0CE
:102EC00040F2033000F0D4FA40F2033000F0DEFAB2
:102ED0002DE04FF4417000F0CBFA4FF4417000F058
:102EE000D5FA24E040F2053000F0C2FA40F2053095
:102EF00000F0CCFA1BE040F2063000F0B9FA40F2E4
:102F0000063000F0C3FA12E040F2073000F0B0FAE9
:102F100040F2073000F0BAFA09E04FF4427000F0D6
:102F2000A7FA4FF4427000F0B1FA00E000BF00BF12
:102F300010BD10B54FF4407000F09AFA4FF4407095
:102F400000F0A4FA10BDF0B5044616460025002294
:102F500001F00F0501F0100707B1354300201EE016
:102F6000012787401F40C7B122684FEA800C0F2716
:102F700007FA0CF7BA43870005FA07F73A432829FE
:102F800004D1012787401F40676105E0482903D12C
:102F9000012787401F4027612260471CB8B20828DC
:102FA000DED3082022E0012787401F40E7B1626896
:102FB000A0F108074FEA870C0F2707FA0CF7BA436E
:102FC000A0F10807BF0005FA07F73A43282904D102
:102FD000012787401F40676105E0482903D1012789
:102FE00087401F4027616260471CB8B21028DAD3BF
:102FF000F0BD01617047416170470AB1016100E0B5
:1030000041617047C160704702469068084008B14E
:10301000012070470020FCE70146886880B27047B5
:103020000246D068084008B1012070470020FCE744
:103030000146C86880B27047F0B50A4600230024F4
:103040000021002500F00046B6F1004F02D1544E99
:10305000F16901E0524E7168C0F3034583B200F498
:103060004016B6F5401F08D121F070614C4E7668CD
:1030700026F070664A4F7E6012E000F48016B6F5C6
:10308000801F06D1032606FA05F4A14341F07061C2
:1030900006E0460D360103FA06F6B14341F07061D1
:1030A00022B1460D360103FA06F6314300F0004620
:1030B000B6F1004F02D13A4EF16101E0384E716035
:1030C000F0BD10B500228B071C0F0F2303FA04F28A
:1030D00004290EDA324B9B689343314CA36023469C
:1030E0009B688C07240F00FA04F423432C4CA36044
:1030F0002FE008290EDA2A4BDB689343284CE36063
:103100002346DB688C07240F00FA04F42343244C85
:10311000E3601EE00C290EDA214B1B699343204C1F
:10312000236123461B698C07240F00FA04F4234310
:103130001B4C23610DE01A4B5B699343184C636190
:1031400023465B698C07240F00FA04F42343144CD4
:10315000636110BD02460020114B186820F07F000B
:1031600040EA02100843186070470D48006840F0BC
:1031700080000B49086070470948006820F0800013
:103180000749086070474FF480320A4382618161C9
:1031900082618269826970470014014000F8FEBFB5
:1031A0000000014044490143444A116070472DE941
:1031B000F04103460D46164600240027A0463F482E
:1031C000006800F4E060B0F5A06F15D006DCB0F543
:1031D000407F18D0B0F5806F19D110E0B0F5C06F06
:1031E00006D0B0F5E06F12D100274FF0040815E0CB
:1031F00001274FF0030811E00227B8460EE003272D
:103200004FF001080AE004274FF0000806E04FF4F1
:10321000A060FFF7C7FF0227B84600BF00BFC7F195
:10322000040005FA00F4C8F104010F20C840304042
:10323000044324012248C45403F01F0101208840A4
:103240005911890001F1E021C1F80001BDE8F081C8
:1032500000F01F02012191401A4A431142F8231045
:103260007047194A0A400243144B1B1F1A607047EB
:103270001249091D09680143104A121D1160704767
:103280000E49091D096881430C4A121D11607047DF
:10329000042808D14FF0E021096941F004014FF002
:1032A000E022116107E04FF0E021096921F00401FB
:1032B0004FF0E022116170470000FA050CED00E0CC
:1032C00000E400E080E100E080FFFF1F0146F74AD4
:1032D00002EB9110006801F01F0301229A40104098
:1032E00008B1012070470020FCE7F0B50646002435
:1032F00000270025182E51D003DC6EB3102E5DD1AF
:1033000006E0B6F5006F14D0B6F5106F56D133E075
:1033100004E01120FFF7DAFF0546641C1DB94FF6E3
:10332000FF708442F5D11120FFF7D0FF00B10127D3
:1033300044E005E040F60100FFF7C8FF0546641CC5
:103340001DB96FF07C408442F4D140F60100FFF7D4
:10335000BDFF00B1012731E004E00120FFF7B6FF17
:103360000546641C15B9B4F5A06FF6D10120FFF72E
:10337000ADFF00B1012721E005E040F60110FFF7A5
:10338000A5FF0546641C15B9C9488442F5D140F62D
:103390000110FFF79BFF00B101270FE004E01920A7
:1033A000FFF794FF0546641C15B9C1488442F6D165
:1033B0001920FFF78BFF00B1012700BF00BF38467F
:1033C000F0BD00B5B948006840F00100B749086099
:1033D0000020FFF78AFFB5484068B6490840B34966
:1033E000486008460068B4490840B049086008468B
:1033F000006820F4802008604FF41F00886000BD42
:10340000AA4A02EB9011096800F01F0301229A40BA
:103410001143A64B03EB901211607047A34A02EBD5
:103420009011096800F01F0301229A4091439F4BBD
:1034300003EB9012116070479C4A02EB90110968EF
:1034400000F01F0301229A401143984B03EB9012A6
:1034500011607047954A02EB9011096800F01F0354
:1034600001229A409143914B03EB901211607047F7
:103470008E4A02EB9011096800F01F0301229A4066
:1034800011438A4B03EB901211607047874A02EB9D
:103490009011096800F01F0301229A409143834B69
:1034A00003EB9012116070478048006A40F480304E
:1034B0007E49086270477D48006A20F480307B496D
:1034C00008627047794A516821F0030141EA00021D
:1034D000764B5A6070477548406800F00C007047A2
:1034E000724A516821F0F00141EA00026F4B5A60C4
:1034F00070476E4A516821F4E06141EA00026B4B6B
:103500005A607047694A516821F4605141EA0002EB
:10351000664B5A607047654A516821F0E06141EAA4
:103520000002624B5A607047024600205F4B5868A9
:10353000624B184042EA010318435C4B58607047E5
:1035400001460020594A506820F40030012901D179
:1035500040F40030554A50607047544A5168584A08
:103560001140082814D2DFE800F004050607130A0A
:10357000130B00BF00BF00BF41EA803109E000BF6C
:1035800020F004004FF0805242EA8032114300E004
:1035900000BF00BF454A51607047444A516821F45A
:1035A000400141EA0002414B5A6070473F4A116AAC
:1035B00021F4407141EA00023C4B1A6270473B48DB
:1035C000406A40F080703949486270470146374A86
:1035D00002EB9110006801F01F0301229A40104095
:1035E00008B1012070470020FCE7304A02EB90113F
:1035F000096800F01F0301229A4011432B4B03EB93
:10360000901211607047294A02EB9011096800F08E
:103610001F0301229A401143244B03EB90121160C7
:103620007047224A02EB9011096800F01F03012243
:103630009A4091431D4B03EB9012116070471B4A57
:1036400002EB9011096800F01F0301229A40114318
:10365000164B03EB901211607047144A02EB901165
:10366000096800F01F0301229A4091430F4B03EBBE
:103670009012116070470146182930D003DCA1B1C7
:1036800010292DD106E0B1F5006F1BD0B1F5106FF8
:1036900026D123E0054A1068126822F48032034BD9
:1036A0001A6040F480221A601AE016E0001002400E
:1036B000FFFF0F000C0000E0FFFFF6FEFFFFC2F768
:1036C000FF3FFFEF6D4A106A126A22F001026B4B56
:1036D0001A6240F004021A6202E000BF00BF00BF9D
:1036E00000BF70470146182923D003DCF9B1102927
:1036F00020D106E0B1F5006F0ED0B1F5106F19D1F1
:1037000016E05E4A1068126822F480325B4B1A6041
:1037100020F480221A600DE0584A106A126A22F0E2
:103720000102564B1A6220F004021A6202E000BF46
:1037300000BF00BF00BF70475048006840F4002041
:103740004E49086070474D48006820F400204B49FE
:1037500008607047494A116821F0F80100F01F0223
:1037600041EAC202454B1A60704700F00700434926
:10377000486370472DE9F04F8BB007460020099051
:103780003FA090E8004CC068CDE905BECDF810A080
:1037900007900FF2F00ADAE9000ACDE9020A0FF207
:1037A000E40ADAE9000ACDE9000A34484068C0F3C7
:1037B00081000A900A9820B1012804D0022829D15A
:1037C00003E0334928E0324926E02C48406800F401
:1037D0008038B8F5803F09D12D4C2848406800F466
:1037E0000039B9F5003F02D1641000E0294C2348AC
:1037F0004068C0F383422148406800F0006008B18F
:1038000042F010020F2A01D2921C00E0521C04FB6D
:1038100002F101E01E4900BF00BF18484068C0F334
:10382000031504A8465D21FA06F314484068C0F366
:10383000022502A8465D23FA06FC10484068C0F342
:10384000C2251DF8056023FA06F0089037B1012F54
:1038500006D0022F06D0032F0AD106E0099107E017
:10386000099305E0CDF824C002E00898099000BF54
:1038700000BF09980BB0BDE8F08F000000100240B7
:103880000000000000000000010203040607080910
:1038900000127A0000093D0010B50446FE49601A86
:1038A0008C4244D00CDCB4F1804F1CD0FB48204447
:1038B00010B3B0F5806F28D0B0F5006F52D12DE075
:1038C000B0F5806F3CD0B0F58E3F03D0B0F5923F9D
:1038D00048D13EE040F20B30FFF7CAFD40F20B301A
:1038E000FFF7D4FD3FE04FF48060FFF7C1FD4FF4D8
:1038F0008060FFF7CBFD36E040F20140FFF7B8FDF6
:1039000040F20140FFF7C2FD2DE040F20240FFF718
:10391000AFFD40F20240FFF7B9FD24E040F2034062
:10392000FFF7A6FD40F20340FFF7B0FD1BE040F2B9
:103930000440FFF79DFD40F20440FFF7A7FD12E0B1
:1039400040F20540FFF794FD40F20540FFF79EFD71
:1039500009E040F20D30FFF78BFD40F20D30FFF72C
:1039600095FD00E000BF00BF10BD00210180418037
:1039700081804FF6FF7181600021818181737047E2
:103980000A888262C64A904221D0B0F1804F1ED090
:10399000C24A524290421AD0C24A904217D0C24AFA
:1039A000904214D0C14A904211D0C14A90420ED0E8
:1039B000C04A90420BD0C04A904208D0BF4A9042C1
:1039C00005D0BF4A904202D0BE4A90420FD1026851
:1039D00022F07002026002688B7803F060031A43E1
:1039E000026002680B7903F010031A4302608A68D0
:1039F000C262A94A90420CD0B34A904209D00268F0
:103A000022F44072026002688B8903F440731A4307
:103A10000260A34A904202D0A44A904201D18A7B1C
:103A20000263426942F0010242617047016841F05D
:103A3000010101607047016821F0010101607047D8
:103A4000016841F0800101607047016821F0800148
:103A500001607047016821F0020101607047016850
:103A600041F0020101607047026822F060020260CA
:103A700002680A4302607047016821F0100101608A
:103A80007047016841F01001016070478162012AAE
:103A900003D1436943F001034361704701637047F9
:103AA000C16270474162704701460020486A704712
:103AB000014600208A6A90B27047082904D1026842
:103AC00042F00802026004E019B9026822F008021C
:103AD00002607047042904D1026842F004020260C7
:103AE00004E019B9026822F0040202607047C2685B
:103AF0000A43C2607047C2688A43C260704708299F
:103B000004D1426842F00802426004E019B94268F8
:103B100022F008024260704710B5836C41F61F74B2
:103B2000A3438364836C41EA02042343836410BD8E
:103B300042690A43426170470021018041808180CF
:103B4000C18001814181818170470A884B881A4375
:103B50008B881A43CB881A430B891A434B891A4323
:103B60008B891A4342647047416C41F4805141642F
:103B70007047416C21F4805141647047416C41F4BD
:103B8000804141647047416C21F480414164704739
:103B9000012904D1426C42F40042426403E0426CC9
:103BA00022F4004242647047012904D1426842F085
:103BB0000102426003E0426822F001024260704765
:103BC00021B9426822F00402426005E0042903D1D1
:103BD000426842F004024260704700210180418047
:103BE0008180C18001814181704710B531B10129C7
:103BF0003FD002296AD0032969D1D9E0036A23F0B2
:103C000001030362836923F003038361036A148859
:103C100023430362036A23F002030362036A948866
:103C2000234303621E4B984202D0204B98421FD17F
:103C3000036A23F004030362036A54882343036284
:103C4000036A23F008030362036AD48823430362F0
:103C5000436823F4807343604368148923434360BB
:103C6000436823F4007343604368548923434360EB
:103C7000C5E0036A23F010030362836923F44073F1
:103C80008361036A148843EA04130362036A23F01E
:103C900020030362036A1BE00010004000FCFFBF2A
:103CA000002C014000080040000C0040003401409E
:103CB000004C0140005001400054014000180040F9
:103CC000001C004000200040001400402FE095E060
:103CD000948843EA04130362F84B984202D0F84BED
:103CE000984223D1036A23F040030362036A548895
:103CF00043EA04130362036A23F080030362036A46
:103D0000D48843EA04130362436823F48063436066
:103D10004368148943EA84034360436823F40063DF
:103D200043604368548943EA8403436067E0036A5D
:103D300023F480730362C36923F00303C361036A3E
:103D4000148843EA04230362036A23F400730362C2
:103D5000036A948843EA04230362D84B984202D052
:103D6000D74B984223D1036A23F480630362036A2A
:103D7000548843EA04230362036A23F40063036262
:103D8000036AD48843EA04230362436823F480531C
:103D900043604368148943EA04134360436823F48F
:103DA000005343604368548943EA0413436026E0A8
:103DB000036A23F480530362C36923F44073C3612D
:103DC000036A148843EA04330362036A23F400534A
:103DD0000362036A948843EA04330362B74B984250
:103DE00002D0B74B984208D1436823F48043436024
:103DF0004368148943EA8413436000E000BF00BFB6
:103E000010BD31B101290CD0022913D0032922D1D0
:103E100018E0836923F0700383618369134383612E
:103E20001AE0836923F4E0438361836943EA022350
:103E3000836111E0C36923F07003C361C369134355
:103E4000C36109E0C36923F4E043C361C36943EA82
:103E50000223C36100E000BF00BF704731B10129F8
:103E600006D0022906D0032908D105E0426306E006
:103E7000826304E0C26302E0026400E000BF00BFAE
:103E8000704731B101290CD0022913D0032922D166
:103E900018E0836923F00803836183691343836116
:103EA0001AE0836923F400638361836943EA022390
:103EB000836111E0C36923F00803C361C36913433D
:103EC000C36109E0C36923F40063C361C36943EAC2
:103ED0000223C36100E000BF00BF704731B1012978
:103EE0000CD0022913D0032922D118E0836923F0D2
:103EF000040383618369134383611AE0836923F4B4
:103F000080638361836943EA0223836111E0C369AB
:103F100023F00403C361C3691343C36109E0C369A8
:103F200023F48063C361C36943EA0223C36100E0F1
:103F300000BF00BF704731B101290CD0022913D056
:103F4000032922D118E0836923F080038361836908
:103F5000134383611AE0836923F400438361836917
:103F600043EA0223836111E0C36923F08003C36144
:103F7000C3691343C36109E0C36923F40043C36108
:103F8000C36943EA0223C36100E000BF00BF70477A
:103F900031B101290CD0022913D0032923D119E012
:103FA000036A23F002030362036A134303621BE004
:103FB000036A23F020030362036A43EA02130362E5
:103FC00012E0036A23F400730362036A43EA0223E4
:103FD000036209E0036A23F400530362036A43EABD
:103FE0000233036200E000BF00BF704721B1012926
:103FF0000AD002291AD110E0036A23F008030362F1
:10400000036A1343036212E0036A23F0800303622E
:10401000036A43EA0213036209E0036A23F40063BC
:104020000362036A43EA0223036200E000BF00BFA9
:10403000704731B101290CD0022913D0032923D1B3
:1040400019E0036A23F001030362036A1343036266
:104050001BE0036A23F010030362036A43EA0213BE
:10406000036212E0036A23F480730362036A43EA83
:104070000223036209E0036A23F480530362036AA4
:1040800043EA0233036200E000BF00BF704721B182
:1040900001290AD002291ED114E0036A23F0040387
:1040A0000362036A1343036216E0036A23F04003CA
:1040B0000362036A43EA021303620DE0002C01402D
:1040C00000340140036A23F480630362036A43EA15
:1040D0000223036200E000BF00BF7047002101809F
:1040E0000121418000218180C180704731B10129C7
:1040F0000CD0022913D0032922D118E0836923F0C0
:104100000C0383618369134383611AE0836923F499
:1041100040638361836943EA0223836111E0C369D9
:1041200023F00C03C361C3691343C36109E0C3698E
:1041300023F44063C361C36943EA0223C36100E01F
:1041400000BF00BF704770B504460E46154636B135
:10415000012E26D0022E48D0032E7DD168E0206AA1
:1041600020F001002062206A20F00A002062206A0C
:10417000298808432062A06920F00300A061A0699B
:1041800069880843A061A06920F0F000A061A069DF
:10419000E98840EA0110A061206A40F00100206235
:1041A0006DE0206A20F010002062206A20F0A0005C
:1041B0002062206A298840EA01102062A06920F468
:1041C0004070A061A069698840EA0120A061A069EF
:1041D00020F47040A061A069E98840EA0130A06144
:1041E000206A40F01000206249E0206A20F48070CC
:1041F0002062206A20F420602062206A298840EA38
:1042000001202062E06920F00300E061E069698834
:104210000843E061E06920F0F000E061E069E988CE
:1042200040EA0110E061206A40F48070206226E0DC
:10423000206A20F480502062206A20F4005020621E
:10424000206A298840EA01302062E06920F4407049
:10425000E061E069698800E010E040EA0120E06187
:10426000E06920F47040E061E069E98840EA0130EB
:10427000E061206A40F48050206200E000BF00BF8F
:10428000AA8831462046FFF731FF70BD0246002064
:1042900031B1012906D0022906D0032908D105E051
:1042A000506B06E0906B04E0D06B02E0106C00E015
:1042B00000BF00BF70472DE9F04104460E46154689
:1042C0000027B846288808B9022700E00027688838
:1042D000012802D14FF0020801E04FF00108002E42
:1042E0004CD1206A20F001002062206A20F00A00F0
:1042F0002062206A298808432062A06920F0030018
:10430000A061A06969880843A061A06920F0F0005D
:10431000A061A069E98840EA0110A061206A40F02C
:1043200001002062AA8800212046FFF7DFFE206AF4
:1043300020F010002062206A20F0A0002062206A95
:1043400040EA07102062A06920F44070A061A069D3
:1043500040EA0820A061A06920F47040A061A06933
:10436000E98840EA0130A061206A40F01000206234
:10437000AA8801212046FFF7B9FE4CE0206A20F010
:1043800010002062206A20F0A0002062206A2988A4
:1043900040EA01102062A06920F44070A061A06989
:1043A000698840EA0120A061A06920F47040A06102
:1043B000A069E98840EA0130A061206A40F010005D
:1043C0002062AA8801212046FFF790FE206A20F093
:1043D00001002062206A20F00A002062206A38432F
:1043E0002062A06920F00300A061A06940EA0800F3
:1043F000A061A06920F0F000A061A069E98840EA0E
:104400000110A061206A40F001002062AA8800210A
:104410002046FFF76BFEBDE8F081802904D1426899
:1044200042F08002426004E019B9426822F0800242
:1044300042607047826822F07002826082680A439C
:1044400082607047426822F07002426042680A430C
:1044500042607047826822F00702826082680A43E5
:1044600082607047802904D1826842F080028260B5
:1044700004E019B9826822F080028260704730B58A
:10448000846824F43F448460846841EA02052C4334
:104490008460846844EA0324846030BD30B5846855
:1044A00024F00704846084680C438460846940F2CB
:1044B0000335AC438461846940F201152C43846167
:1044C000046A24F00A040462046A24F0A00404626A
:1044D000046A42EA03152C43046230BD816821F06E
:1044E00007018160704710B503460C462146184607
:1044F000FFF7A0FF986820F007009860986840F0E8
:104500000700986010BD70B504460E461546602E33
:1045100020D1206A20F010002062206A20F0A00044
:104520002062206A40EA05102062A06920F44070F1
:10453000A061A06940F48070A061A06920F470407F
:10454000A061A06940EA0320A061206A40F0100049
:1045500020621DE0206A20F001002062206A20F025
:104560000A002062206A28432062A06920F003002C
:10457000A061A06940F00100A061A06920F0F000F6
:10458000A061A0691843A061206A40F00100206288
:1045900031462046FFF74EFFA06820F00700A060DC
:1045A000A06840F00700A06070BDF0B504460D465D
:1045B00016461F463B46324629462046FFF75FFF18
:1045C000A06820F07700A060A06840F07700A060AD
:1045D000F0BDF0B504460D4616461F463B46324632
:1045E00029462046FFF74BFFA06840F48040A060BA
:1045F000F0BD816821F4804181607047C2680A4340
:10460000C2607047C2688A43C26070470246D06881
:1046100000EA01031069084010B10BB10120704796
:104620000020FCE702698A43026170470246106974
:10463000084008B1012070470020FCE702698A4366
:104640000261704710B50446EA49601A8C4228D0CE
:1046500006DCE948204490B1B0F5806F33D117E013
:10466000B0F5806F26D0B0F56C4F2CD140F20E30F3
:10467000FEF7FEFE40F20E30FEF708FF24E040F2A7
:104680001140FEF7F5FE40F21140FEF7FFFE1BE081
:1046900040F21240FEF7ECFE40F21240FEF7F6FE4A
:1046A00012E040F21340FEF7E3FE40F21340FEF743
:1046B000EDFE09E040F21440FEF7DAFE40F214404D
:1046C000FEF7E4FE00E000BF00BF10BD2DE9F0479B
:1046D00004460D460027B846B9460026C549601A6B
:1046E0008C421CD006DCC448204470B1B0F5806F09
:1046F0001FD10FE0B0F5806F16D0B0F56C4F18D118
:104700000320FFF737F8074614E00220FFF732F8DE
:1047100007460FE00220FFF72DF807460AE00220C7
:10472000FFF728F8074605E00220FFF723F80746C1
:1047300000E000BF00BF07EB5500B0FBF5F64FF6F9
:10474000F07006EA000806F00F0948EA0900A060C8
:10475000BDE8F087C26822F4C062C260C2680A4342
:10476000C2607047C26822F48052C260C2680A43C5
:10477000C2607047026922F44052026102690A4332
:1047800002617047C16841F40051C1607047C1685F
:1047900021F40051C16070470A460021C16821F030
:1047A00008011143C16070470A460021C16821F029
:1047B00004011143C1607047C1F3080242607047B1
:1047C00001464868C0F308007047026922F00F02F2
:1047D0000261026901F00F031A4302617047C16868
:1047E00041F00201C1607047C16821F00201C1605F
:1047F0007047C26822F40062C260C2680A43C260A5
:104800007047016941F4804101617047016921F4F9
:10481000804101617047026922F020020261026951
:1048200001F020031A4302617047C16841F00101A1
:10483000C1607047416941F00801416170474169B9
:1048400021F0080141617047016941F40061016193
:104850007047016921F400610161704770B50C4631
:104860000021016921F4E06104F4807502F400760E
:10487000354303F4806635432943016170BD826985
:1048800022F47F42826182694FF47F4303EA01236D
:104890001A4382617047416941F0200141617047CC
:1048A000416921F0200141617047416941F01001E7
:1048B00041617047416921F01001416170474169D0
:1048C00041F0020141617047416921F002014161FB
:1048D0007047826922F0FF02826182690A43826125
:1048E0007047426922F004024261426901F0040308
:1048F0001A43426170470A460021416921F48071E0
:104900001143416170470A460021416921F4007159
:104910001143416170470A460021416921F040017D
:104920001143416170470A460021416921F080012D
:1049300011434161704710B5024602EB91100068C7
:1049400001F01F040123A340184008B1012010BD4D
:104950000020FCE710B500EB9112126801F01F0473
:104960000123A3409A4300EB91131A6010BD10B5C8
:10497000C1F38912825801F01F040123A3401A4396
:10498000C1F38913C25010BD10B5C1F3891282580A
:1049900001F01F040123A3409A43C1F38913C250BD
:1049A00010BD70B5024600230024C1F389101058D1
:1049B00001F01F060125B54000EA050302EB915006
:1049C0000068C1F304460125B54000EA050414B1AE
:1049D0000BB1012070BD0020FCE710B500EB915237
:1049E0001268C1F304440123A3409A4300EB91539E
:1049F0001A6010BD004C004000BCFFBF0948804752
:104A000009480047FEE7FEE7FEE7FEE7FEE7FEE7B0
:104A1000FEE7FEE7FEE7FEE704480549054A064BC8
:104A200070470000E54A00083101000898030020A3
:104A30009843002098230020982300200020002184
:104A40005C4A126842F001025A4B1A6000BF401CD7
:104A5000584A126802F0020111B9B0F5A06FF6D100
:104A6000544A126802F002020AB900BFFEE7514A36
:104A70005268504B5A601A4652685A601A46526839
:104A800042F480625A601A4652684B4B1A40494BB6
:104A90005A601A465268494B1A43464B5A601A46A6
:104AA000126842F080721A6000BF424A126802F037
:104AB0000072002AF9D03F4A526822F003023D4BAF
:104AC0005A601A46526842F002025A6000BF394AE0
:104AD000526802F00802002AF9D0704710B5FFF7BB
:104AE000ADFF10BD10B53348006840F001003149FA
:104AF000086008464068324908402E494860084628
:104B00000068304908402B4908600846006820F4D6
:104B100080200860084640682B49084025494860C5
:104B20000846006827490840224908604FF41F00E2
:104B30008860FFF7D3FF10BD70B51E4D6D68C5F3DB
:104B4000810424B1012C06D0022C2DD107E01F4D89
:104B50001F4E35602CE01D4D1D4E356028E0154D73
:104B60006D6805F480320AB91A4908E01749114DF9
:104B70006D6805F40033B3F5003F00D149100D4DC9
:104B80006D68C5F383400B4D6D6805F000650DB190
:104B900040F010000F2801D3401C00E0801C01FBF6
:104BA00000F50B4E356003E0084D094E356000BF3F
:104BB00000BF70BD00100240FFFFC3F700000408F3
:104BC0000C00FFE8FFFFF6FEFFFF00F700127A007F
:104BD000B001002000093D0010B5203AC0F00B8064
:104BE000B1E81850203AA0E81850B1E81850A0E8F1
:104BF0001850BFF4F5AF5FEA027C24BFB1E818504B
:104C0000A0E8185044BF18C918C0BDE810405FEABA
:104C1000827C24BF51F8043B40F8043B08BF704736
:104C2000D20728BF31F8023B48BF11F8012B28BF3B
:104C300020F8023B48BF00F8012B704770477047CF
:104C40007047754600F02CF8AE460500694653469D
:104C500020F00700854618B020B5FFF7DDFEBDE85F
:104C600020404FF000064FF000074FF000084FF0D3
:104C7000000B21F00701AC46ACE8C009ACE8C00964
:104C8000ACE8C009ACE8C0098D46704710B50446D1
:104C9000AFF300802046BDE81040FBF7B0BA00003B
:104CA000004870473803002001491820ABBEFEE7DA
:104CB00026000200704700001803460065007200DD
:104CC0006E0061006E00640065007A004B004100D8
:104CD00000002003500075006C0073006500200088
:104CE000670065006E0065007200610074006F006F
:104CF000720000002C03500075006C00730065000A
:104D00002000670065006E0065007200610074009D
:104D10006F00720020007600200031002E0030006D
:104D200000001201000202000040E9288A0100018F
:104D30000102030104030904344D0008B84C0008C3
:104D4000D24C0008F44C0008684D00080000002018
:104D5000B40100006C0100081C4E0008B4010020E2
:104D6000E4410000C801000801B013224D140814EA
:104D7000011B20380813910D1B08BD04139B0E1B4B
:104D8000082F04511A7C0812801D08FFFF2F100203
:104D900011FF091012B133C20112081409024313A2
:104DA000020125803209041B01020B130524161091
:104DB000010524011009010424020205240617013B
:104DC0000705820308150A09040133020A2E0705A4
:104DD000030240072A81075139081A600729573111
:104DE00013791F140873201B0845084B9D210813D5
:104DF0008F221B08F7041387231B0889041AD90480
:104E00001337251B087B041AE1041A47241A570498
:0C4E10001A6704510400A24A04000000CC
:0400000508000131BD
:00000001FF
