:020000040800F2
:10000000904300200D0200081502000817020008A6
:10001000190200081B0200081D0200080000000071
:100020000000000000000000000000001F020008A7
:100030002102000800000000230200082502000839
:1000400027020008270200082702000827020008EC
:1000500027020008270200082702000827020008DC
:1000600027020008270200082702000827020008CC
:1000700027020008270200082702000827020008BC
:1000800027020008270200082702000827020008AC
:10009000730700082702000827020008270200084B
:1000A00027020008C50600082702000827020008EA
:1000B000DD060008270200082702000827020008C2
:1000C000270200082702000827020008270200086C
:1000D000270200087107000827020008270200080D
:1000E000270200082702000827020008270200084C
:1000F000270200082702000827020008270200083C
:10010000270200082702000827020008270200082B
:10011000270200082702000827020008270200081B
:10012000270200082702000827020008270200080B
:1001300000F002F800F05AF80AA090E8000C82449F
:100140008344AAF10107DA4501D100F04FF8AFF27C
:10015000090EBAE80F0013F0010F18BFFB1A43F0A5
:1001600001031847681E0000881E00000A444FF073
:10017000000C10F8013B13F0070408BF10F8014B06
:100180001D1108BF10F8015B641E05D010F8016B4B
:10019000641E01F8016BF9D113F0080F1EBF10F8AF
:1001A000014BAD1C0C1B09D16D1E58BF01F801CBD2
:1001B000FAD505E014F8016B01F8016B6D1EF9D555
:1001C0009142D6D37047000000230024002500266A
:1001D000103A28BF78C1FBD8520728BF30C148BFAA
:1001E0000B6070471FB51FBD10B510BD00F063F860
:1001F0001146FFF7F7FF00F069FC00F081F803B447
:10020000FFF7F2FF03BC00F089F8000009488047BF
:1002100009480047FEE7FEE7FEE7FEE7FEE7FEE7E8
:10022000FEE7FEE7FEE7FEE704480549054A064B00
:1002300070470000D5050008310100089003002038
:1002400090430020902300209023002010B5203AF6
:10025000C0F00B80B1E81850203AA0E81850B1E87F
:100260001850A0E81850BFF4F5AF5FEA027C24BF35
:10027000B1E81850A0E8185044BF18C918C0BDE82C
:1002800010405FEA827C24BF51F8043B40F8043BF5
:1002900008BF7047D20728BF31F8023B48BF11F8AA
:1002A000012B28BF20F8023B48BF00F8012B704704
:1002B000704770477047754600F02CF8AE46050051
:1002C0006946534620F00700854618B020B5FFF771
:1002D000ABFFBDE820404FF000064FF000074FF0A5
:1002E00000084FF0000B21F00701AC46ACE8C00954
:1002F000ACE8C009ACE8C009ACE8C0098D4670475D
:1003000010B50446AFF300802046BDE81040FFF76B
:1003100076BF0000004870472C03002001491820D8
:10032000ABBEFEE72600020070470000104930B463
:100330000A69104BD243D20611D10A697AB10A690F
:1003400002F01F04521C0A6143F8240088680969FE
:1003500030BC00EB81001946803800F069B80A69AA
:1003600002F01F04521C0A6143F8240030BC70479D
:10037000CC000020280200200D4810B5816941F012
:100380001C018161C16941F00101C161816941F4D0
:100390000061816140F2177000F0F6FD4FF080605F
:1003A00000F0E8FDBDE81040002000F017BE00009E
:1003B0000010024001460020092907D2DFE801F0C1
:1003C000060507090B0D0F111300012070470220CD
:1003D00070470320704704207047052070470620AF
:1003E0007047072070470820704700000D490C4AED
:1003F0004A600D4A4A6000E000BFCA68D207FBD1DC
:100400000A6942F002020A614861086940F040004E
:10041000086100E000BFC868C007FBD1704700005A
:100420002301674500200240AB89EFCD006870478B
:10043000164B10B5144A5A60154A5A6000E000BFC6
:10044000DA68D207FBD11A6942F001021A61002270
:1004500000E000BFDC68E407FBD151F8224040F81F
:100460002240521CD2B2202AF4D300E000BFD86848
:10047000C007FBD1186920F001001861186920F04D
:100480008000186110BD0000230167450020024074
:10049000AB89EFCD70B500F0C1FA4FF400530122E3
:1004A0001421104800F0C6FA0F4C4FF400630322E9
:1004B0001821204600F0BEFAA5142B46032218216D
:1004C000204600F0B7FAA31503221821204600F0B9
:1004D000B1FA2B46BDE8704003221021034800F01A
:1004E000A9BA00000010014000080140000C0140C2
:1004F00001EB8000FFF79ABF30F8401F408881422F
:1005000002D9081A80B270470020704710B54FF426
:10051000C06000F0FDFC00220121142000F0B4FCBA
:10052000032211461C2000F0AFFC0222BDE810405F
:100530001146192000F0A8BCB0F842104A1C92B233
:10054000A0F84220B0F84030415C934203D1002231
:1005500020F8402F42800846704700B50B460246FF
:10056000FFF7CAFFFF2806D0B2F84000411CA2F8EE
:100570004010135400BD0120A2F84000137000BDCC
:1005800070B50F4C00252178032901D051B10AE044
:1005900061680143616002D00846FFF7C7FE25701D
:1005A000012070BD65604A42182303EBC2029040EF
:1005B0006268491C104360602170002070BD00001B
:1005C000E40000200248016821F001010160704749
:1005D000002C01400E48016841F0010101604168B2
:1005E0000C4A1140416002680B490A4002600268EF
:1005F00022F4802202604268084B1A40426002687E
:100600000A4002604FF41F01816000F01BBD000032
:10061000001002400C00FFE8FFFFF6FEFFFF00F7AE
:100620002DE9F041244AD2F80CC01369244D244E20
:10063000234C1146214808362F1D283C89685B1E33
:100640009C4510D2136973B1036883F4805303602F
:10065000D068401CD060FFF74BFF2B46324639462E
:1006600000F0B0F919E01369D2F80CC05B1E6345C5
:1006700017D11369002B14D092F800C00023BCF1ED
:10068000000F10D0D360D068FFF732FF2B46324600
:10069000394600F097F900F0AFF9206840F001000A
:1006A0002060BDE8F081016881F480510160D36071
:1006B000BDE8F041FFF786BFCC0000200C0C0140E4
:1006C000282C014010B50121034800F0ABFDBDE826
:1006D0001040FFF7A5BF0000002C014010B501211C
:1006E000880700F09FFD0348C16881F40051C16094
:1006F00010BD00000010014030B51C4D89B02846E7
:1007000000F0DCFC40F2CF20ADF80000002409200E
:100710000290ADF80240ADF804406946284600F06A
:100720000FFD0121284600F079FD286840F00800FF
:1007300028604FF08045284600F0C0FC4FF6FF705F
:10074000ADF810004FF4FA700690ADF81240ADF815
:10075000144004A9284600F0F3FC0121284600F0CB
:100760005DFD284600F0E6FC09B030BD002C0140DC
:10077000FEE701F0E5B900000E4A5068FF2816D0E8
:1007800002F118008378018863F31F41C37841EABE
:100790000363A0F108010B6003790B7143794B717E
:1007A00080798871012050701070FF205060002007
:1007B00070470000EC00002070B515460122124E73
:1007C000012901D1012D04D051EA05030ED081B1D8
:1007D00011E0836A416B994205D100231A462946EC
:1007E00000F062FF00E03270002070BDFFF7C4FF30
:1007F00001E0032D01D0022070BD7270032101F0D1
:100800005CFAF060F0E70000EC000020034A0021F1
:1008100040235170024A032100F0FABEEC00002090
:10082000EC020020402907D8044B00221A708BB23A
:10083000034A812100F038BF70470000EC0000201F
:10084000EC02002010B50446812100F0FBFD0321DD
:10085000204600F0F7FD8221204600F0F3FD002045
:1008600010BD000010B50446084A002100F016FE35
:10087000064A0021D21F204600F010FE034A002144
:10088000173A204600F00AFE002010BD4801002063
:1008900070B50C783A23294A14F06005A2F12904B6
:1008A00025D0202D47D14A78042A44DD202A02D0C1
:1008B000212A40D107E06260204ACB88113A00210A
:1008C00000F0A6FE37E01D4C193C04F10802236835
:1008D00013701D0A55701D0C95701B0ED370237973
:1008E000137163795371A3799371CB8820E04D78AC
:1008F000062D12D00A2D02D00B2D1CD103E00F4A79
:100900000123213A14E04A8812F0FF0F02D000F0D0
:1009100033FD10E0D0B2A0600DE04C882125B5EB8E
:10092000142F05D1CB883A2B00D93A23034A093238
:10093000802100F0B9FE002070BD000015010020EC
:1009400010B503680A48036009784FF0F03301B12D
:1009500019464160117801B90023064C8360606834
:10096000FFF744FD6068BDE810400149FFF760BD36
:10097000A8010020CC0000202DE9F041104C0746D2
:1009800015460E466068FFF751FD401C03D06068B5
:10099000FFF74CFD386060684FF0F03140688842E6
:1009A00001D1012000E0002030706068806888423A
:1009B00001D1012000E000202870BDE8F081000096
:1009C000CC00002010B54FF6FF74A04209D20128D8
:1009D00000D0401E08600020106040F2CF20186058
:1009E00010BD6424B0FBF4F0401E086009201060C4
:1009F00041F61F40F3E70000064841780648FF290A
:100A0000016803D041F480510160704721F48051A6
:100A1000FAE70000CC0000200C0C014010B54FF4A8
:100A20004074204600F0CCFA2046BDE8104000F0AB
:100A3000B9BA00002DE9F04301F00F04CD0600D54E
:100A4000144300254FF00F095FF0010202FA05F68A
:100A50001E4014D007684FEA850C09FA0CF827EA03
:100A6000080704FA0CF848EA0708282902D04829A0
:100A700002D002E0466100E00661C0F800806D1C13
:100A8000ADB2082DE2D3082502FA05F61E4016D0B5
:100A900047684FEA8508A8F1200809FA08FC27EA08
:100AA0000C0704FA08FC4CEA070C282902D0482954
:100AB00002D002E0466100E00661C0F804C06D1C8F
:100AC000ADB2102DE0D3BDE8F083000090B0FFF789
:100AD00053FCFFF7DFFCFFF70FFEA34800F00AFC12
:100AE000FFF714FDA14AA249A248FFF745FFDFF82E
:100AF0007C924FF080464FF6FF7B99F8000030B1B2
:100B00000121002000F082FA43F6FF7004E000218A
:100B1000084600F07BFA5846B062DFF84C82DFF8F6
:100B200058A2002498F8010003281ED193480078A9
:100B3000012805D0DAF80010B9B10025904F0DE07A
:100B40008948FFF763FE10E0795D8E48FFF705FDE9
:100B5000795D8D4800F06AFB6D1CEDB2DAF800009B
:100B60008542F1D30020CAF800008648FFF7C4FC94
:100B70000028D7D08348FFF7DFFC0546092CD1D2E7
:100B8000DFE804F005184D585E6B7075B600284616
:100B9000FFF710FC04460728C4D1764900200860FE
:100BA0007A4908607A49FF2008700021284600F041
:100BB0002DFAB7E743F6FF70B0620021084600F057
:100BC00025FAFFF719FF7348704C01682068FFF79A
:100BD0008FFC58450BD27049012800D0401E086098
:100BE0006D490020091D086040F2CF210BE064210F
:100BF000B0FBF1F06849401E086067480921001DFC
:100C0000016041F61F416448001F016063A000F0CD
:100C100089F900202060012100F0F8F966E0C6F8AB
:100C200028B00021084600F0F1F95849002008607A
:100C30005FA059E00121002000F0FAF961A004E072
:100C40000021084600F0F4F963A000F06BF9474A70
:100C500047494848FFF774FE48E0012189F8001031
:100C600062A0F2E7002089F8000064A0EDE74848A0
:100C70000178FF2910D02846FFF782FC002898D081
:100C800063480068002894D13A48016820291CD2A2
:100C90004048604900681FE005705F4801688DB1F9
:100CA00041F480510160334D286800F01F0139483C
:100CB0000068401AFFF79AFB0020286057A000F058
:100CC00031F92FE721F48051ECE700684109314800
:100CD000006800EBC1104F49FFF7AAFB234A2449E3
:100CE0002448FFF72DFE54A000F01CF9002419E75A
:100CF000D5B11F48007800B1FF208DF8000099F8A9
:100D0000000000B1FF208DF801001A480168090AAF
:100D10008DF8021000688DF803000D208DF8040096
:100D20000A208DF805001DE0402247A16846FFF724
:100D30008DFA1048006840B15FF031008DF8240052
:100D40000B48007818B1312002E03020F6E730205F
:100D50008DF82E0099F8000008B1312000E0302015
:100D60008DF83B006846BFE700000020E00000204F
:100D7000CC000020DC000020F8000020ED00002066
:100D8000EC020020A802002000380140D80000201A
:100D9000CD000020D40000202C2C0140537461723F
:100DA000742067656E65726174696F6E0A0D00006C
:100DB00053746F702067656E65726174696F6E0A37
:100DC0000D00000052657065617420666C616720DB
:100DD0007365740A0D0000005265706561742066C9
:100DE0006C61672072657365740A0D005365742029
:100DF0006175746F73746172740A0D005265736566
:100E000074206175746F73746172740A0D00000050
:100E1000E8000020280200200C0C014050756C7383
:100E2000652073746174652069732073656C6563F4
:100E30007465640A0D0000004C6F616420697320C2
:100E4000656E6465640A0D0047656E657261746F56
:100E500072207620312E3020323032322D30332D38
:100E600031392053616D706C65733A202A205265C8
:100E7000706561743A202A204175746F73746172D1
:100E8000743A202A0A0D000070B505461F48002458
:100E90000E460068234600F4E0614FF4A0608142F2
:100EA0000FD006DCB1F5407F16D0B1F5806F06D1CA
:100EB0000FE0B1F5C06F09D0B1F5E06F04D000F0DC
:100EC00027F80224234608E0042306E00124032334
:100ED00003E00324012300E00424C4F1040086405D
:100EE000C3F104010F20C8401040304305F1E02158
:100EF000000181F8000405F01F0101208840690904
:100F0000890001F1E021C1F8000170BD0CED00E0A5
:100F10000249084302490860704700000000FA05D2
:100F20000CED00E030B40021104D0A460B4614468B
:100F3000425C491CC9B20A2C02D00D2C03D005E03A
:100F40000D2A02D002E00A2A00D101236C1804F80D
:100F5000012C0BB9FF29EAD105484078032803D1B9
:100F600030BC0348FFF75EBC30BC7047EC02002089
:100F700000000020034A516821F0E0610143516004
:100F80007047000000100240054901EB90110A680B
:100F900000F01F030120984002430A6070470000E0
:100FA00000100240054901EB90110A6800F01F0390
:100FB0000120984082430A60704700000010024000
:100FC000054901EB90110A6800F01F0301209840C9
:100FD00002430A607047000000100240034A516853
:100FE00021F44001014351607047000000100240AD
:100FF000054801684FF6FB72114001600168121F3D
:101000001140016070470000405C004002004FF05A
:1010100000000AD105480029016802D041F0010111
:1010200001E021F00101016001207047002C014026
:1010300002004FF0000002D101480170012070470A
:10104000CC0000201A480021026842F00102026030
:101050004FF4A0630268491C12F0020F01D19942BB
:10106000F8D10168890700D4FEE741684160416812
:101070004160416841F48061416041680D4A11401E
:10108000416041680C4A11434160016841F0807140
:10109000016001688901FCD5416821F003014160CC
:1010A000416841F00201416041680907FCD5704781
:1010B00000100240FFFFC3F7000004081B4A10B5F0
:1010C000811A1415904229D00DDCB0F1804F14D054
:1010D000174940181CD0A0421DD0B0F5006F23D195
:1010E00040F2034409E0A1421BD0B1F58E3F0CD081
:1010F000B1F5923F18D140F20D342046FFF760FF62
:101100002046BDE81040FFF74DBF40F20B34F4E736
:1011100040F20144F1E740F20244EEE740F20444B9
:10112000EBE740F20544E8E710BD00000010004086
:1011300000FCFFBF016841F0010101607047000041
:1011400030B50A888262284A284B90421FD0B0F1FD
:10115000804F1CD0264CA04219D0264CA04216D05D
:10116000254CA04213D0984211D0244CA0420ED05E
:10117000234CA0420BD0234CA04208D0224CA042CA
:1011800005D0224CA04202D0214CA0420FD10468CD
:1011900024F07004046004688D7805F060052C4329
:1011A000046004680D7905F010052C4304608C6818
:1011B000C462184CA0420ED0174CA0420FD0046855
:1011C00024F44074046004688D8905F440752C4350
:1011D0000460904201D0984201D1897B016341694A
:1011E00041F00101416130BD002C0140003401405B
:1011F0000004004000080040000C0040004C01408A
:10120000005001400054014000180040001C004004
:10121000002000400010004000140040C2680A4353
:10122000C260704702698A4302617047C1F30801D6
:10123000416070472DE9F04704460878DFF8A08048
:10124000284E0D4610F01F004FF0000748F6BF79FA
:1012500004D0012812D0022826D118E06078022894
:1012600001D0032804D16888012803D002281BD0AC
:10127000BDE8F087E770D4F8C42024E06078022845
:1012800012D00328F4D108790128F1D90CE029798A
:101290006078022804D00328EAD1688850B10FE0B2
:1012A0000029E5D08029E3D02046BDE8F0470021A1
:1012B00000F0C6B921B1802902D0204600F060F8C4
:1012C000D4F8C420294620469047D8F800008780EB
:1012D000306800EA090080F030003060C8E70000A4
:1012E0005C010020005C004050F8B41F8978118038
:1012F000006870470021C170074801220260016048
:10130000021D1160044A10321160044A4FF41F415B
:101310001160016070470000405C004054010020F3
:1013200010B50C464178032916D12179012913D82B
:10133000D0F8C42021469047E18801430FD10949E4
:101340000020096888800849086848F6BF72104084
:1013500080F03000086002E0002100F071F9002008
:1013600010BD00005C010020005C004050F8B01F80
:101370000978118000687047002100F061B9000011
:1013800010B5CC0901F07F0303EB830100EB810171
:101390004FEA8300174B48F68F721844D0F8003C90
:1013A00011D010315B0606D5D0F8003C134043F055
:1013B0004002C0F8002CD0F8002C48F6BF731A4049
:1013C00082F0300210E060315B0406D5D0F8003CBA
:1013D000134043F48042C0F8002CD0F8002C4BF6A8
:1013E0008F731A4082F44052C0F8002C002008701D
:1013F00010BD000000500040084B10B503EB410346
:101400000021521C05E000BF33F8044B20F8024BCA
:10141000491CB1EB520FF7D310BD00000060004033
:10142000074B10B503EB41030021521C04E000BF41
:1014300030F8024B491C10C3B1EB520FF8D310BD6A
:1014400000600040CB094FEA4160134948F68F72B3
:1014500001EBD050D0F8001C0DD0490606D5D0F8CD
:10146000001C114041F04001C0F8001CD0F8001CE5
:1014700048F6BF720CE0490406D5D0F8001C1140B4
:1014800041F48041C0F8001CD0F8001C4BF68F726C
:101490001140C0F8001C7047005000402DE9F04F8B
:1014A0009378002403F00F06D37813F0030306D0DB
:1014B000012B0AD0022B0AD0032B08D102E04FF4F3
:1014C000007404E04FF4C06401E04FF480644E4BBC
:1014D000344303EB8603C3F8004C947895885FEAA5
:1014E000D4184A4C48F68F7948F6BF774BF68F7C74
:1014F00032D006EB860200EB82004561A268A0882C
:1015000002EB06166D1C3080626825F00100024473
:101510006260012917D1D3F8001C41F4807101EAFF
:101520000901C3F8001C3281616808446060D3F887
:10153000000C384080F03000C3F8000CD3F8000CE9
:1015400000EA0C0004E0D3F8000C384080F02000E2
:10155000C3F8000CBDE8F08F06EB860800EB8800AE
:101560004FF0FF3A4FF6FF7B456601292AD1D3F8A9
:10157000000C40F4807808EA0908C3F8008CD3F81E
:10158000008C08EA090848F04000C3F8000CD4F8C1
:101590000880A08808EB06183E2DA8F8000007D99F
:1015A0001F3525F01F000AEB401545F4004504E007
:1015B0006D1C25F001000BEA4025A8F80450656871
:1015C000284460609088A268A58802EB06123E2835
:1015D000158107D91F3020F01F000AEB401040F49E
:1015E000004004E0401C20F001000BEA4020908104
:1015F000D3F8000C012900EA0C0002D080F400505E
:10160000A6E7C3F8000C9EE70050004054010020FC
:1016100010B501F07F0101EB810400EB8400C0E90B
:101620001A23064800EB8101D1F8000C4BF68F72AB
:10163000104080F44050C1F8000C10BD0050004034
:1016400030B501F07F04CB0901F07F0202EB82018B
:1016500000EB81014FEA8200124A1044D0F8003CAE
:1016600008D048F6BF752B4083F01003C0F8003C4B
:10167000103107E04BF68F752B4083F48053C0F890
:10168000003C603101200870002C09D1D2F8000C18
:101690004BF6BF71084041F210014840C2F8000CFF
:1016A00030BD00000050004038B501F07F0404EB6D
:1016B000840100EB81000025183000952CC01946EC
:1016C00050F8102C1438934202D91146009200E0D1
:1016D00000910D4D8AB28068A96801EB0411098858
:1016E000FFF79EFEA968009801EB04118880074867
:1016F00000EB8401D1F8000C48F6BF72104080F076
:101700003000C1F8000C38BD5401002000500040EA
:1017100008B500220092C988012903D00021FFF7F3
:101720008FFF08BD4178022907D00329F6D1012394
:1017300002468021FFF7B8FF08BD01236A46F8E79B
:10174000F8B5054608780E46C1060DD000F01F001A
:10175000012832D1D5F8C420002A2ED001B031465C
:101760002846BDE8F040104771880024080AC9B235
:10177000ADF8004003280BD8052909D80F4A02EB21
:1017800080006A4650F8043C28469847044603E027
:1017900028460021FFF754FFBDF8000000280CD0B8
:1017A000F388002B09D0834200D90346ADF80030FE
:1017B000224680212846FFF777FFF8BD9C010020D4
:1017C0004278022A09D0032A0AD10A79012A04D8C8
:1017D000D0F8C420002A03D010470021FFF730BF03
:1017E00070471CB50022ADF80020ADF804200A783F
:1017F00012F01F0204D0012A0FD0022A2CD115E0CA
:101800004178022901D0032929D1C17811B10221DF
:10181000ADF8001002236A462DE04278022A1BD060
:10182000032A1CD109790129F4D915E009794278F4
:10183000022A0DD0032A12D10B064FF001020FD558
:1018400001F07F0101EB810100EB8101097C0DE0DA
:10185000002904D0802902D00021FFF7F1FE1CBD31
:1018600001EB810100EB810191F8601009B1ADF845
:101870000420022301AA8021FFF716FF1CBD0000EF
:1018800070B5054601EB810005EB8004103459B1B9
:10189000D4E90302801AE06052D083B22846A268DD
:1018A000FFF702FF002070BDEA680026E2B361681E
:1018B000E068884208D9401AE06083B28021284657
:1018C000A268FFF7F1FE0DE0B0FBF1F301FB13019D
:1018D00079B990420DD200231A4680212846FFF79D
:1018E000E3FEEE6000231A4619462846FFF790FEF5
:1018F000D8E7E6606878032805D10022D5F8C8301B
:101900000121284698471348016848F68F7241F430
:1019100080711140016001684BF68F72114081F4B3
:1019200040510160EE60BDE7FFE70B4908780028F1
:10193000B8D0084A40F080004C3210600E70B1E719
:1019400068780328AED10A46D5F8C8300121284668
:101950009847A7E7005C0040640100200F49087821
:1019600090B10878401E0870087868B90C4A13785E
:101970000C48012B0AD003689BB243F010030360AC
:1019800003200870012010700020704701684FF696
:10199000EF73194001600020F5E7000060010020AE
:1019A00061010020405C00402DE9FC5F4FF0000A1F
:1019B0000746ADF804A0ADF800A0DFF804B1DFF8E9
:1019C0000491DFF8048171E0BDF8040000F00F0518
:1019D0000BEB8500D0F8001CADF80010BDF804102A
:1019E000C90605EB85011DD4BDF8002007EB810178
:1019F000103112065AD5D0F8002C48F60F731A4051
:101A0000C0F8002CD9F8000000EB05108088C0F366
:101A1000090008618A681044886029463846FFF743
:101A20002FFF43E007EB8104BDF800106034090488
:101A30003CD5D0F8001C40F68F721140C0F8001C55
:101A4000D9F8000000EB051081898E05B60D13D082
:101A5000BDF8001009050AD5D9F800003246018901
:101A6000381DFFF7C9FC384600F02BFA24E0018945
:101A70003246A068FFF7C0FC206930442061A068AE
:101A80003044A060E068801BE06002D06168B14231
:101A900006D92946384600F0CBF8C4F810A005E076
:101AA00083B229463846A268FFF7B2FDD8F8000095
:101AB000ADF80400000487D40020BDE8FC9F0000BE
:101AC000005000405C010020445C004030B5184CE0
:101AD0001849402222600B6848F68F751A802168E9
:101AE000403119814031216048F2FF719981426192
:101AF000114B0021C0F8642003EB8102D2F8004CA6
:101B00002C400C43C2F8004C491CC9B20429F3D341
:101B10000A4A8021116009494C390A6892B20A6068
:101B200043F220220A6001214170002030BD0000F4
:101B3000580100205C010020005000404C5C004037
:101B40007CB50020ADF80000ADF80400314D2868E8
:101B5000ADF80000304EBDF8001030880840000499
:101B600002D52E48FFF720FF3088BDF800102B4C1F
:101B70000840C00409D54EF6FF702860A078607058
:101B80002748007808B9FFF733FA3088BDF800100D
:101B90000840000514D51F48001F0068C0060FD478
:101BA0006078A070042060701E48007810B100F0CA
:101BB000B9F902E01C49032008704FF2FF70286059
:101BC0003088BDF800100840800508D54FF6FF505A
:101BD000286016491148096809B1096888473088A2
:101BE000BDF800100840C00505D54FF6FF6028601D
:101BF0000A48FFF7B3FE3088BDF8001008404005E2
:101C000007D54FF6FF302860BDE87C400348FFF75A
:101C10005DBF7CBD445C00405401002000000020FA
:101C200061010020620100206001002050010020BD
:101C300070B5044601EB810004EB8000603019B1FF
:101C4000607803282CD031E0194DE16811B3C268E7
:101C500041688A4208D9511AC1608BB2826800215A
:101C60002046FFF7D5FC21E06078032805D100224B
:101C7000D4F8C8301146204698470E480021006825
:101C80008180286848F6BF72104080F030002860DC
:101C9000E1600BE0286848F68F610840286005E0A5
:101CA0000A46D4F8C830002120469847002070BD6D
:101CB000005C00405C010020704701EB810100EBFB
:101CC0008100B0F8700080B27047000030B48A889C
:101CD000E2B9CA88D2B9897801F07F020D490A7049
:101CE0004178032912D00C4B00211B6899800B4BC3
:101CF000196848F6BF74214081F0300119600AB1BB
:101D0000022100E00121417030BC704730BC00214D
:101D1000FFF796BC640100205C010020005C0040DD
:101D20002DE9F0470446204889784170012905D9FA
:101D30002046BDE8F0470021FFF782BC6378DFF85A
:101D40006C8000261A4DD8F8002048F6BF77022B89
:101D500007D0032B1BD159B1237881468B4218D170
:101D600004E019B12170032060701AE0968009E048
:101D7000022060702170D4F8C02020469047D8F827
:101D8000000086802868384080F030002860BDE878
:101D9000F087D4F8C02019462046904799F80110E2
:101DA0002170D4F8BC20E8E7640100205C01002029
:101DB000005C0040704700002DE9F0410A78214E98
:101DC000214C12F01F024FF0000548F6BF7704D0F7
:101DD000012A0CD0022A20D112E04278022A01D036
:101DE000032A2CD14988012929D1C17020E04278E9
:101DF000022A12D0032A22D1097901291FD90CE025
:101E00000A794378022B04D0032B18D1498849B1B1
:101E10000EE0002A13D0802A11D0BDE8F041002145
:101E2000FFF70EBC22B1802A02D01146FFF708FC52
:101E3000306885802068384080F030002060BDE840
:101E4000F08100005C010020005C004010B5427889
:101E5000022A15D0032A12D10A79012A10D8D0F803
:101E6000C42002B1904709490020096888800849C8
:101E7000086848F6BF72104080F03000086010BD5E
:101E8000BDE810400021FFF7DBBB00005C01002033
:101E9000005C004010B503790B7043794B70837977
:101EA000C47903EB04234B80037A447A03EB0423C5
:101EB0008B80837AC27A03EB022292B2CA80C2601C
:101EC00010BD1CB504466946FFF7E4FF9DF80010FD
:101ED00011F0600109D020290CD0402903D0002145
:101EE0002046FFF7ADFB00201CBD6946204600F0F0
:101EF00007F8F8E769462046FFF712FAF3E7000013
:101F000010B54A78024B53F822209047002010BDAC
:101F100068010020D0F8B80050F821000178118045
:101F2000704700000348016889B241F00C0101606C
:101F300070470000405C0040704718034600650091
:101F400072006E0061006E00640065007A004B0054
:101F5000410000002003500075006C007300650014
:101F60002000670065006E0065007200610074006B
:101F70006F00720000002C03500075006C007300AD
:101F800065002000670065006E006500720061005A
:101F900074006F00720020007600200031002E00D7
:101FA000300000001201000202000040E9288A010E
:101FB000000101020301040309040000B61F000828
:101FC0003A1F0008541F0008761F0008EC1F000885
:101FD00000000020A80100006C010008902000080B
:101FE000A8010020E8410000C801000801B013A4C6
:101FF0001F14080C011B20BC081365081B084504AE
:102000001A910413B907120832FF1A7C081A8804BF
:10201000011729239133C201892B140902431302AA
:102020000125803209041B01020B1305241610013F
:1020300005240110090104240202052406170107E2
:1020400005820308150A09040133020A2E07050355
:102050000240072A810791390C2A6007296421135D
:10206000E3171C083512A81A1C044A1D081ACD04CF
:102070001A41181AB5101A11081A21081AC10813A2
:102080004D1E1B0839E0136D131B08E9341A150C9B
:0400000508000131BD
:00000001FF
